:020000040800F2
:10000000B0460020615B00086D4300086F430008A4
:1000100073430008774300087B430008000000009A
:100020000000000000000000000000008143000804
:100030007F43000800000000834300088543000858
:1000400087430008894300088B4300088D4300085C
:100050008F4300089143000893430008954300082C
:1000600097430008994300089B4300089D430008FC
:100070009F430008A1430008A3430008A5430008CC
:10008000A7430008A9430008AB430008AD4300089C
:10009000AF430008B1430008B3430008B54300086C
:1000A000B7430008B9430008D3430008D54300080C
:1000B000D7430008D9430008DB430008DD430008AC
:1000C000DF430008E1430008E3430008E54300087C
:1000D000E74300084D430008E9430008EB430008EC
:1000E000ED430008EF430008F1430008F343000824
:1000F000F54300080F4400081144000813440008A9
:100100001544000817440008194400081B4400085F
:100110001D4400081F44000821440008234400082F
:100120002544000827440008294400082B440008FF
:1001300000F002F800F04AF80AA090E8000C8244AF
:100140008344AAF10107DA4501D100F03FF8AFF28C
:10015000090EBAE80F0013F0010F18BFFB1A43F0A5
:1001600001031847F4760000147700000A4410F8E1
:10017000014B14F00F0508BF10F8015B240908BFFC
:1001800010F8014B6D1E05D010F8013B6D1E01F8F3
:10019000013BF9D1641E03D0641E01F8015BFBD161
:1001A0009142E4D37047000000230024002500267C
:1001B000103A28BF78C1FBD8520728BF30C148BFCA
:1001C0000B6070471FB51FBD10B510BD05F0F0FCEA
:1001D0001146FFF7F7FF00F0FDF805F00EFD03B440
:1001E000FFF7F2FF03BC05F00FFD00002DE9FC470F
:1001F0000024002500260027A046A146F9480168F2
:10020000F948006807F0B0F8F84908600846016846
:10021000F748006806F016FF0746F4480168F548FD
:10022000006806F00FFF8046F0480168F248006859
:1002300006F008FF8146F1480468F1480568F14876
:1002400006683B46324629462046CDE9008901F042
:100250007DFABDE8FC8710B5EB48006801F0B4FEFC
:10026000EA490880EA48006801F0AEFEE9490880E2
:10027000E948006801F0A8FEE8490880E8480068FD
:1002800001F0A2FEE7490880E048008881B2E64814
:1002900005F033FADF48008881B2E34805F029FA17
:1002A000DE48008881B2E04805F021FADD48008888
:1002B00081B2DD4805F01FFA10BD2DE9F041DB48A1
:1002C0000078A0280BDD0020D949087000F003FE5B
:1002D0000020D64908700120D549087076E0D3483F
:1002E0000078A02872D1D348007801286ED1002070
:1002F000CF490870D0480078D0490978884207DD96
:10030000CD480078CD490978401ACD49088002E0EF
:100310000020CB490880CB4890F9000006F095FA00
:1003200004460D46C84890F9000006F08EFA21F008
:100330000041064622462B4606F0D8FB05D2C248AD
:1003400090F90000C149088002E00020BF49088000
:10035000BC4890F9000006F078FA04460D46BC4807
:1003600090F9000006F071FA21F00041064622469D
:100370002B4606F0BBFB05D2B54890F90000B54905
:10038000088002E00020B3490880AE4890F90000E0
:1003900006F05BFA04460D46AF4890F9000006F0FF
:1003A00054FA21F00041064622462B4606F09EFBF9
:1003B00004D2A94890F90000A84908800020A74964
:1003C00008809C4908700120994908709C48007871
:1003D000BDE8F08103F0AAF903F0DCF903F00DFAAF
:1003E00003F054FA01F068FC01F034F901F066F909
:1003F00000F0CCF902F091F902F0BEFB02F0CBFB69
:1004000001F0DAFC01F026FD54E095480068002870
:100410004ED000209249086092480068401C9149E3
:10042000086091480068401C8F4908608F48006848
:1004300030B1012813D0022822D0032836D12BE076
:100440008B480068401C8A49086001F057FF8848C3
:100450000068052802D901208449086027E001F0DE
:100460004DFFFFF72AFF834908600846006818B16E
:1004700002207E49086002E003207C49086016E003
:1004800001F03CFFFFF7B2FE02F024FDFFF7E3FEB0
:100490000120764908600AE001F030FFFFF7A6FE70
:1004A00001F0A8FD01207149086000E000BF01E0F3
:1004B00003F019FAA9E72DE9F04786B04FF00008DC
:1004C000C146C2460025002600246B496B480068DF
:1004D00006F04AFF804668496948006806F044FF14
:1004E000814665496748006806F03EFF8246002164
:1004F000404606F005FF06D246F004066249404633
:1005000006F032FD80460021484606F0F9FE06D28C
:1005100046F002065C49484606F026FD8146002169
:10052000504606F0EDFE06D246F00106564950460A
:1005300006F01AFD8246404606F096FE03904846B5
:1005400006F092FE0490504606F08EFE05900024C0
:1005500011E003A830F82400C0F3072001A901F836
:10056000140003A810F82400012101EB440101AAA2
:100570005054601CC4B2032CEBDB46F0B0073D4680
:10058000002405E001A8005D2844C5B2601CC4B287
:10059000062CF7DBEDB2E843C5B2681CC5B280217A
:1005A0003A4805F05DFA012818D13A2000F0BCFB6A
:1005B000384600F0CBFB002405E001A9085D00F0FF
:1005C000C5FB601CC4B2062CF7DB284600F0BEFB5E
:1005D0002F2000F0A9FB0A2000F0A6FB06B0BDE822
:1005E000F0870000480000204C0000205000002050
:1005F000E0000020E4000020E8000020F0000020DF
:10060000EC000020F4000020380100208C000020C5
:100610003C0100208E0000204001002090000020BE
:1006200044010020920000200034014032000020EC
:10063000300000203500002034000020360000206B
:100640003C0000203A000020370000203E0000203F
:100650003800002040000020390000204200002027
:1006600004000020100000201400002008000020DA
:10067000000000200C0000200000C8427400002090
:10068000780000207C00002000A08C46003801404B
:1006900000B591B04F4803F081FB4F4806904F489A
:1006A0000790002008900220099000200A908020E6
:1006B0000B9040000C9080000D9020200E900002C6
:1006C0000F900020109006A9424803F000FC012181
:1006D000404803F027FC4FF4004004F070F900207C
:1006E000019001208DF808008DF809004FF460207A
:1006F00003900020049002208DF8140001A93648D0
:100700004C3803F060F907230122082132484C38A5
:1007100003F0F1F90723022209212F484C3803F096
:10072000EAF901212C484C3803F084F901212A48C8
:100730004C3803F074F928484C3803F092F900BFA4
:1007400025484C3803F092F90028F9D122484C385A
:1007500003F096F900BF20484C3803F096F90028C2
:10076000F9D101211C484C3803F099F911B000BDB2
:1007700008B50320ADF800008DF8020000208DF8C8
:1007800003006946164803F0B3FC08BD10B5FFF737
:10079000EFFFFFF77DFF00F007FB12A000F00FFB5B
:1007A00000F027FB10BD70B500240C49088806F046
:1007B00093FD04464FF08941204606F043FC054670
:1007C0000F4906F0D1FD0446204606F04DFD0D49C7
:1007D000086070BD080002404C2401401800002051
:1007E000000C014066696E69736820746F20696E41
:1007F000697420616463206465766963652E000016
:1008000000404E452C0000202DE9FC5F4FF0000B0E
:100810000020019000900024002500278046F84821
:1008200005F0CBF800F0FF0BBBF13A0F06D100202A
:10083000F4490870F4490870009073E2BBF12F0F7F
:1008400075D1F0480078012842DD002607E0EF4826
:10085000815D00980844C0B20090701CC6B2E9489F
:100860000078801EB042F2DCE6480078401EE7497E
:1008700011F80090E3480078801E11F800A0B9F14B
:100880003A0F04DDA9F1370000F0FF0903E0A9F1F8
:10089000300000F0FF09BAF13A0F04DDAAF1370089
:1008A00000F0FF0A03E0AAF1300000F0FF0AF02098
:1008B00000EA0A1009F00F0108430190DDE9000188
:1008C0000844C0B20090009810B90120CE490870C9
:1008D000CF4800780028B0D0CB4800780028ACD0B2
:1008E000CA4804784578877890F803800020C94981
:1008F0000870C9490870522C05D1432D03D1A0209E
:10090000C64908703FE1422C07D1412D05D1542F33
:1009100003D1A120C149087035E1562C08D1452DDD
:1009200006D1522F04D1A220BC4908702BE1E7E187
:10093000432C0AD1542D08D1522F06D1B8F14C0FB7
:1009400003D1A320B54908701DE1502C0AD1572DC1
:1009500008D14F2F06D1B8F14E0F03D1A420AF49D3
:10096000087010E1502C0AD1572D08D14F2F06D115
:10097000B8F1460F03D1A520A849087003E1502C17
:100980000AD1522D08D1532F06D1B8F1540F03D1FB
:10099000A620A2490870F6E05A2C0AD1542D08D19D
:1009A0004F2F06D1B8F14E0F03D1A7209B490870F5
:1009B000E9E05A2C0AD1542D08D14F2F06D1B8F1B5
:1009C000460F03D1A82095490870DCE0522C07D1CE
:1009D000532D05D1542F03D1A92090490870D2E09E
:1009E000502C0AD1412D08D14C2F06D1B8F14C0F13
:1009F00003D1B02089490870C5E0492C0AD1412DA6
:100A000008D14C2F06D1B8F14C0F03D1B120834946
:100A10000870B8E0442C0AD1412D08D14C2F06D1E2
:100A2000B8F14C0F03D1B2207C490870ABE04D2CDB
:100A30000AD1412D08D14C2F06D1B8F14C0F03D16A
:100A4000B320764908709EE0572C0AD1522D08D168
:100A5000502F06D1B8F1580F03D1B4206F49087058
:100A600091E0572C0AD1522D08D1502F06D1B8F160
:100A7000590F03D1B5206949087084E0572C0AD179
:100A8000522D08D1502F06D1B8F15A0F03D1B620FC
:100A90006249087077E0572C0AD1522D08D1492FAE
:100AA00006D1B8F1580F03D1B7205C4908706AE04D
:100AB000572C0AD1522D08D1492F06D1B8F1590F20
:100AC00003D1B820554908705DE0572C0AD1522D4A
:100AD00008D1492F06D1B8F15A0F03D1B9204F4997
:100AE000087050E0572C0AD1522D08D1442F06D15E
:100AF000B8F1580F03D1BA204849087043E0572C89
:100B00000AD1522D08D1442F06D1B8F1590F03D183
:100B1000BB204249087036E0572C0AD1522D08D12B
:100B2000442F06D1B8F15A0F03D1BC203B490870BD
:100B300029E0572C0AD1522D08D14D2F06D1B8F1FA
:100B4000580F03D1BD20354908701CE0572C0AD13D
:100B5000522D08D14D2F06D1B8F1590F03D1BE2027
:100B60002E4908700FE0572C0AD1522D08D14D2F75
:100B700006D1B8F15A0F03D1BF202849087002E00E
:100B80000020264908701F480078042878DD1D4899
:100B900000780A282DD100260DE01C49301D085C84
:100BA00030381F4988550846805D092801DD00203E
:100BB0008855701CC6B2042EEFDB194800784FF43C
:100BC0007A7148431649497801EBC10202EB0111E1
:100BD00000EB81001249897801EB810100EB4100B3
:100BE0000F49C97808440F49086001200949087075
:100BF00046E0044800780C2842D1002629E0000095
:100C0000003801403300002031000020CC010020DA
:100C1000300000201C0000202400002032000020B2
:100C20000C02002020000020FA49B01C085CFA49A0
:100C300088550846805D3A2804DD0846805D3738CF
:100C4000885504E0F448805D3038F3498855701CBD
:100C5000C6B2082EE8DB00260DE0012000EB4600BE
:100C6000ED49095CEC4810F8160001EB0010EB4967
:100C70008855701CC6B2042EEFDB0120E8490870CD
:100C8000E8480078A0284DD1E4480078E64908708B
:100C9000E248407800F07F00E4490870DF4880783F
:100CA00000F07F00E2490870DC48C07800F07F0067
:100CB000E0490870D948407810F0800F05D0DB4833
:100CC0000078404240B2D9490870D448807810F08A
:100CD000800F05D0D6480078404240B2D449087011
:100CE000CE48C07800F08000802805D1D148007837
:100CF000404240B2CF4908700120CF49087011E04E
:100D0000C448CE49097800F801B0CC4800783F28A3
:100D100005DACA480078401CC849087002E0002083
:100D2000C6490870BDE8FC9F10B5044642F2107039
:100D300002F050FD2146C24804F03BFE00BF802176
:100D4000BF4804F08DFE0028F9D010BD70B50446F0
:100D500004F00F0526090A2E05DA06F13001B8481D
:100D600004F027FE04E006F13701B54804F021FE47
:100D700000BF8021B24804F073FE0028F9D00A2D8C
:100D800005DA05F13001AE4804F013FE04E005F188
:100D90003701AB4804F00DFE00BF8021A84804F0E5
:100DA0005FFE0028F9D070BD10B53A20FFF7BCFFF8
:100DB0004420FFF7B9FF2D20FFF7B6FF10BD70B537
:100DC00005460026002407E0701CC6B2285D2E28C8
:100DD00000D103E0601CC4B2402CF5DB00BF00244E
:100DE00004E0285DFFF7A0FF601CC4B2B442F8DB4A
:100DF00070BD10B52F20FFF797FF0D20FFF794FF70
:100E000010BD2DE9F843814600200090484605F0CA
:100E10001CFD21F00041074605F0EAFC0446B9F14B
:100E2000000F02DA2D20FFF77FFF42F20F7084429D
:100E300000D90446B4F57A7F01D3042508E0632C79
:100E400001D9032504E0092C01D9022500E0012580
:100E5000B4F57A7F0ED34FF47A70B4FBF0F0C0B2E1
:100E60008DF803009DF8030000EB4001C1EBC010BA
:100E7000A4EBC004632C0DD96420B4FBF0F0C0B225
:100E80008DF802009DF8020000EBC00101EB00109C
:100E9000A4EB8004092C0BD90A20B4FBF0F0C0B2FB
:100EA0008DF801009DF8010000EB8000A4EB4004E8
:100EB000E0B28DF80000002609E0691E891B1DF8CC
:100EC00001103031C8B2FFF72FFF701CC6B2AE421E
:100ED000F3DBBDE8F88310B552480078A1280DD1A6
:100EE000FFF762FF57A0FFF76AFFFFF75CFC5A4865
:100EF0000068FFF786FFFFF77CFFAAE34948007808
:100F0000A22807D1FFF750FF54A0FFF758FFFFF7C3
:100F100070FF9EE343480078A32823D1FFF744FFE6
:100F200051A0FFF74CFF40480078FFF76AFF2C20E4
:100F3000FFF7FAFE3D4890F90000FFF762FF2C2012
:100F4000FFF7F2FE3A4890F90000FFF75AFF2C2015
:100F5000FFF7EAFE374890F90000FFF752FFFFF76E
:100F600048FF76E32F480078A42814D1FFF71CFF30
:100F700044A0FFF724FFFFF73CFF0020454908701D
:100F800029490870294908702949087029490870B9
:100F900000F0D0FE5DE323480078A52815D1FFF7C7
:100FA00003FF3DA0FFF70BFFFFF723FF01203949A7
:100FB000087000201C4908701C4908701C49087002
:100FC0001C49087000F064FE43E316480078A62828
:100FD0001FD1FFF7E9FE35A0FFF7F1FEFFF709FF8C
:100FE0000020384908803849088038490880384945
:100FF00008803849088038490880002405E000202E
:10100000364941F82400601CC4B2032CF7DB0024ED
:101010006CE082E0CC0100200C02002025000020C2
:10102000240000203200002034000020370000207F
:101030003800002039000020350000203300002057
:1010400000380140726561642062617420766F6CC3
:1010500074616765202E00002C0000207665727395
:10106000696F6E2030332E00726561642072656D89
:101070006F746520636F6E74726F6C20646174614D
:10108000202E00006D6F746F7220706F7765722074
:101090006F6E2E00450000206D6F746F7220706FB0
:1010A000776572206F66662E0000000072657365BA
:1010B00074205049442063616C2064617461202E67
:1010C00000000000C0000020BE000020C200002080
:1010D000B2000020B4000020B60000209C010020D7
:1010E0000020FB4941F82400601CC4B2032CF7DB4C
:1010F000002405E00020F74941F82400601CC4B238
:10110000032CF7DB002405E00020F34941F824001C
:10111000601CC4B2032CF7DB9BE2F0480078A728E0
:101120000AD1FFF741FEEEA0FFF749FEFFF761FE8F
:101130000120F14908708CE2E8480078A8280AD11B
:10114000FFF732FEEDA0FFF73AFEFFF752FE002058
:10115000E94908707DE2E1480078A9280BD1FFF742
:1011600023FEECA0FFF72BFEFFF743FE03F008FA87
:1011700003F064FA6DE2D9480078B02815D1FFF782
:1011800013FEE9A0FFF71BFE002409E0EB4951F82C
:101190002400FFF736FE2C20FFF7C6FD601CC4B20A
:1011A000032CF3DBFFF725FE53E2CC480078B1288F
:1011B00015D1FFF7F9FDE2A0FFF701FE002409E0D9
:1011C000C34951F82400FFF71CFE2C20FFF7ACFDAB
:1011D000601CC4B2032CF3DBFFF70BFE39E2BF48FF
:1011E0000078B22815D1FFF7DFFDDAA0FFF7E7FDA1
:1011F000002409E0B74951F82400FFF702FE2C2033
:10120000FFF792FD601CC4B2032CF3DBFFF7F1FD86
:101210001FE2B2480078B32815D1FFF7C5FDD2A070
:10122000FFF7CDFD002409E0AB4951F82400FFF79A
:10123000E8FD2C20FFF778FD601CC4B2032CF3DB23
:10124000FFF7D7FD05E2A5480078B42816D1FFF7CF
:10125000ABFDCAA0FFF7B3FDCC480078012806D14A
:10126000CB480068B54908600020C8490870C848E4
:101270000068FFF7C6FDFFF7BCFDEAE1974800787C
:10128000B52816D1FFF790FDC2A0FFF798FDBF4823
:101290000078012806D1BE480068A84948600020AF
:1012A000BA490870BA480068FFF7ABFDFFF7A1FD27
:1012B000CFE18A480078B62816D1FFF775FDB9A0AE
:1012C000FFF77DFDB1480078012806D1B0480068DD
:1012D0009A4988600020AD490870AD480068FFF762
:1012E00090FDFFF786FDB4E17C480078B72816D161
:1012F000FFF75AFDAFA0FFF762FDA4480078012870
:1013000006D1A34800687249086000209F49087010
:101310009F480068FFF775FDFFF76BFD99E16F4887
:101320000078B82816D1FFF73FFDA6A0FFF747FDCC
:1013300096480078012806D19548006864494860BD
:1013400000209249087092480068FFF75AFDFFF7A5
:1013500050FD7EE161480078B92816D1FFF724FDE1
:101360009CA0FFF72CFD89480078012806D1884809
:1013700000685749886000208449087084480068E4
:10138000FFF73FFDFFF735FD63E154480078BA28C9
:1013900016D1FFF709FD93A0FFF711FD7B480078F8
:1013A000012806D17A4800684A4908600020774938
:1013B000087077480068FFF724FDFFF71AFD48E141
:1013C00046480078BB2816D1FFF7EEFC89A0FFF74E
:1013D000F6FC6E480078012806D16D4800683D494A
:1013E000486000206949087069480068FFF709FDF6
:1013F000FFF7FFFC2DE139480078BC2816D1FFF734
:10140000D3FC80A0FFF7DBFC60480078012806D100
:101410005F4800682F49886000205C4908705C487C
:101420000068FFF7EEFCFFF7E4FC12E12B480078C0
:10143000BD2816D1FFF7B8FC76A0FFF7C0FC5348D3
:101440000078012806D1524800682349086000202E
:101450004E4908704E480068FFF7D3FCFFF7C9FCFF
:10146000F7E01E480078BE2816D1FFF79DFC6DA05E
:10147000FFF7A5FC45480078012806D144480068DC
:101480001549486000204149087041480068FFF74D
:10149000B8FCFFF7AEFCDCE010480078BF2816D19E
:1014A000FFF782FC63A0FFF78AFC38480078012828
:1014B00006D1374800680849886000203349087021
:1014C00033480068FFF79DFCFFF793FCC1E0B9E0EB
:1014D000A8010020B4010020C0010020320000203B
:1014E000626567696E20746F206F75747075742003
:1014F000616E676C65202E004400002073746F706D
:1015000020746F206F757470757420616E676C65E0
:10151000202E0000726573657420746865207379ED
:101520007374656D202E00007265616420416C6CDF
:1015300020502064617461202E0000009C01002076
:101540007265616420416C6C204920646174612083
:101550002E0000007265616420416C6C20442064A0
:10156000617461202E0000007265616420416C6C22
:10157000204D2064617461202E0000007772697430
:10158000652050582064617461202E001C000020EA
:1015900020000020777269746520505920646174BE
:1015A00061202E00777269746520505A206461743E
:1015B00061202E0077726974652049582064617437
:1015C00061202E0077726974652049592064617426
:1015D00061202E00777269746520495A2064617415
:1015E00061202E007772697465204458206461740C
:1015F00061202E00777269746520445920646174FB
:1016000061202E00777269746520445A20646174E9
:1016100061202E007772697465204D5820646174D2
:1016200061202E007772697465204D5920646174C1
:1016300061202E007772697465204D5A20646174B0
:1016400061202E00FFF7B0FB30A0FFF7B8FBFFF7DB
:10165000D0FB10BD08B50121042003F049FA012197
:10166000880303F045FA4FF40070ADF80000032042
:101670008DF8020018208DF803006946284802F012
:1016800037FD4FF48060ADF8000004208DF80300B2
:101690006946234802F02CFD08BD08B525208DF8C9
:1016A000000001208DF8010000208DF802000120CB
:1016B0008DF80300684602F008FF08BD1FB54FF41F
:1016C000E13000900020ADF80400ADF80600ADF860
:1016D0000800ADF80C000C20ADF80A00694611486E
:1016E00004F091F8FFF7D9FF012240F225510D488F
:1016F00004F003F901210B4804F0F3F8FFF754FB61
:1017000009A0FFF75CFBFFF774FB1FBD756E6B6EE6
:101710006F776E20636F6D6D616E642E0000000048
:10172000000801400038014066696E6973682074E2
:101730006F20696E697420626C7565746F6F746870
:10174000206465766963652E000000000FB59DB0CA
:10175000FE480168006805F007FE1390FC48016828
:10176000FA48006805F000FE1290FA480168F74850
:10177000006805F0F9FD1190F5480168006805F072
:10178000F3FD1090F4480168F148006805F0ECFDA5
:101790000F90F0480168006805F0E6FD0E90EE48F5
:1017A0000168EC48006805F0DFFD0D90EA4801682B
:1017B000006805F0D9FD0C90E8480168239805F011
:1017C000D3FD14901F99084605F0CEFD06901E9992
:1017D000084605F0C9FD04901D99084605F0C4FDB2
:1017E0000390049905F0C0FB0590069905F0BCFB39
:1017F000079005F08DFBCDE9080104F08DFDCDE9E2
:101800000A0104F0AFFD1B9000211B9805F0DCFCE1
:1018100002D1002021B000BD1B991D9805F012FCDB
:101820001D901B991E9805F00DFC1E901B991F988A
:1018300005F008FC1F9011990F9805F09DFE4FF0E0
:1018400080410B9005F090FD1A900D99129805F0CB
:101850008BFB4FF080410B9005F086FD199010999D
:10186000139805F089FE0A900E9905F085FE0B90FD
:101870000C9905F079FB189019991F9805F074FDE3
:101880000B9018991E9805F06FFD0A900B9905F0C2
:1018900073FE179018991D9805F066FD0B901A9924
:1018A0001F9805F061FD0A900B9905F065FE1690F2
:1018B0001A991E9805F058FD0B9019991D9805F07E
:1018C00053FD0A900B9905F057FE1590A448016846
:1018D000179805F049FD0B90A24801680B9805F098
:1018E00043FBA04908609E480168169805F03CFD3E
:1018F0000B909D4801680B9805F036FB9A490860EB
:1019000097480168159805F02FFD0B9097480168DE
:101910000B9805F029FB95490860954817990068D0
:1019200005F022FD0A90209905F01EFB0B908D48D2
:1019300001680B9805F018FB20908D4816990068F7
:1019400005F012FD0A90229905F00EFB0B908648D7
:1019500001680B9805F008FB2290854815990068EE
:1019600005F002FD0A90239905F0FEFA0B907F48DE
:1019700001680B9805F0F8FA2390774823990068DE
:1019800005F0F2FC099073482299006805F0ECFC20
:1019900007906F48006880F000400590209905F09E
:1019A000E3FC0690079905F0E7FD0890099905F01A
:1019B000E3FD0A90694801680A9805F0D5FC0B9090
:1019C000624801680B9805F0CFFA604908606248E8
:1019D0002299006805F0C8FC09905E4823990068C8
:1019E00005F0C2FC079059482099006805F0BCFC3E
:1019F0000690079905F0B8FA0890099905F0BCFD22
:101A00000A90564801680A9805F0AEFC0B905048C1
:101A100001680B9805F0A8FA4D4908604E482099D6
:101A2000006805F0A1FC099049482399006805F079
:101A30009BFC079045482299006805F095FC0690AC
:101A4000079905F099FD0890099905F08DFA0A901B
:101A5000424801680A9805F087FC0B903D480168F0
:101A60000B9805F081FA3B4908603A4820990068D4
:101A700005F07AFC099036482299006805F074FC5C
:101A8000079032482399006805F06EFC069007998C
:101A900005F06AFA0890099905F06EFD0A902F4842
:101AA00001680A9805F060FC0B902B4801680B98C0
:101AB00005F05AFA2849086008460168006805F0F0
:101AC00053FC069023480168006805F04DFC049023
:101AD0001F480168006805F047FC02901B48016838
:101AE000006805F041FC0190029905F03DFA039071
:101AF000049905F039FA0590069905F035FA079032
:101B000005F006FACDE9080104F006FCCDE90A016A
:101B100004F028FC1B9000211B9805F055FB01D117
:101B2000002077E609481B99006805F08BFA074901
:101B3000086007481B99006805F084FA04490860AA
:101B400004481B99006805F07DFA13E05800002056
:101B50005C0000206000002064000020880000205D
:101B600084000020680000206C000020700000202D
:101B7000800000203F4908603F481B99006805F03D
:101B800061FA3D4908604FF08040119905F0ECFB87
:101B900004904FF040400F9905F0E6FB0390049944
:101BA00005F0E2F9059005F0B3F9CDE9060104F07E
:101BB000A3F84FF0C042314BCDE9080104F098FE84
:101BC000CDE90A0104F0CEFB2D4908604FF08040BA
:101BD0000E9905F0C9FB01904FF04040109905F0B7
:101BE000C3FB0090019905F0C7FC4FF07E510290B5
:101BF00005F0BAF9039005F08BF9CDE906014FF035
:101C00008040129905F0B0FB02904FF080400D9992
:101C100005F0AAFB0190029905F0A6F9039005F0E2
:101C200077F9CDE90401DDE9062304F0B5FA4FF0B8
:101C3000C042124BCDE9080104F05AFECDE90A0179
:101C400004F090FB0F4908604FF08040149905F0B4
:101C50008BFB0A900C4801680A9805F0F3F90B9089
:101C60000A4801680B9805F07FF9084908600120CF
:101C7000D0E50000600000206400002066A64C4013
:101C80007800002074000020480000207C00002024
:101C900010B54FF40041314802F0D7FA4FF400710B
:101CA0002F4802F0D2FA20212D4802F0CEFA04216A
:101CB0002C4802F0CAFA10BD08B501213C2002F000
:101CC00017FF4FF40040ADF8000002208DF802002D
:101CD00010208DF803006946204802F009FA4FF4FD
:101CE0000070ADF8000002208DF8020010208DF881
:101CF000030069461A4802F0FBF92020ADF8000005
:101D000002208DF8020010208DF803006946144867
:101D100002F0EEF90420ADF8000002208DF8020078
:101D200010208DF8030069460E4802F0E1F9FFF734
:101D3000AFFF08BD10B54FF40041084802F083FA28
:101D40004FF40071064802F07EFA2021044802F0A8
:101D50007AFA0421034802F076FA10BD0008014027
:101D6000000C01400014014010B54FF40071B94857
:101D700002F069FA8021B74802F065FA4021B548BF
:101D800002F061FA4FF48071B24802F05CFA10BDC3
:101D900010B54FF40071AF4802F057FA8021AD48FA
:101DA00002F053FA4021AB4802F04FFA4FF4807131
:101DB000A84802F04AFA10BD08B50121182002F027
:101DC00097FE4FF40070ADF8000003208DF802007C
:101DD00010208DF8030069469E4802F089F98020A2
:101DE000ADF8000003208DF8020010208DF80300EC
:101DF0006946984802F07CF94020ADF800000320C5
:101E00008DF8020010208DF803006946914802F019
:101E10006FF94FF48070ADF8000003208DF80200D8
:101E200010208DF8030069468A4802F061F9FFF737
:101E3000AFFF08BD08B52C208DF8000000208DF8FC
:101E400001008DF8020001208DF80300684602F0C1
:101E50003CFB08BD00B589B00121480302F048FEF3
:101E60004FF40070ADF8200003208DF822001820F8
:101E70008DF8230008A9774802F03AF98020ADF8E0
:101E8000200003208DF8220018208DF8230008A9D7
:101E9000704802F02DF94020ADF8200003208DF8A5
:101EA000220018208DF8230008A96A4802F020F9C2
:101EB0004FF48070ADF8200003208DF82200182028
:101EC0008DF8230008A9634802F012F90020ADF84C
:101ED0001A000120ADF814000020ADF816005E488D
:101EE000008880B2ADF8180005A95C4802F0D7FE62
:101EF0006020ADF804000120ADF8060058480088C5
:101F000080B2ADF80A000020ADF80C00ADF80E006C
:101F10004FF48070ADF810000020ADF8120001A958
:101F20004E4802F0D5FE0120ADF806004D4800886D
:101F300080B2ADF80A0001A9484802F000FF012074
:101F4000ADF806004848008880B2ADF80A0001A943
:101F5000424802F03EFF0120ADF8060043480088E9
:101F600080B2ADF80A0001A93C4802F07AFFFFF701
:101F700061FF0121394803F018F90121374803F0C6
:101F800020F9FEF711FF3AA0FEF719FFFEF731FF27
:101F900009B000BD10B53548008881B22F4803F064
:101FA000ACFB3048008881B22C4803F0A2FB2C48DF
:101FB000008881B2294803F09AFB2B48008881B23F
:101FC000264803F098FB10BD70B5054630492846F9
:101FD00005F096FA01D22E4C07E02E49284605F06E
:101FE0008FF901D22B4C00E02C46204605F020F959
:101FF00000B270BD10B5002027490860274908606D
:102000002749086027490860274908602749086070
:102010002749086027490860274908602749086060
:102020000F20124908600F4908600D4908600E49E9
:1020300008600021094803F060FB0021074803F015
:1020400058FB0021054803F052FB0021034803F030
:1020500052FB10BD001001409400002000340140EC
:10206000A4000020A0000020A80000209C00002068
:1020700066696E69736820746F20696E6974206D7B
:102080006F746F72206465766963652E00000000CE
:1020900000C0794400007041380100203C0100205C
:1020A0004001002044010020080100200C01002014
:1020B0001001002014010020180100201C01002044
:1020C00000BF411E0800FCD1704710B58021FE48BA
:1020D00002F0BBF80A20FFF7F3FF4021FA4802F0B4
:1020E000B2F80A20FFF7ECFF8021F74802F0ABF8C6
:1020F0000A20FFF7E5FF10BD10B58021F24802F07D
:10210000A2F80A20FFF7DCFF4021EF4802F09BF81D
:102110000A20FFF7D5FF4021EB4802F096F80A208D
:10212000FFF7CEFF10BD10B58021E74802F08DF813
:102130000A20FFF7C5FF4021E34802F084F80A2097
:10214000FFF7BEFF4021E04802F07FF80A20FFF7CA
:10215000B7FF10BD2DE9F041064600272AE0802197
:10216000D94802F070F84021D74802F06EF80024F8
:10217000002518E04021D44802F065F80A20FFF756
:102180009FFF6006040E8021CF4802F042F808B19C
:1021900044F001044021CC4802F057F80A20FFF730
:1021A0008FFF681CC5B2082DE4DBF455FFF7BBFFB9
:1021B000781CC7B20D2FD2DB8021C34802F043F850
:1021C0004021C14802F041F80024002518E04021D8
:1021D000BD4802F038F80A20FFF772FF6006040ECF
:1021E0008021B94802F015F808B144F001044021FB
:1021F000B54802F02AF80A20FFF762FF681CC5B252
:10220000082DE4DB7473FFF777FFBDE8F08170B54C
:1022100004464021AC4802F018F8002520E014F0F4
:10222000800F04D08021A84802F00DF803E080213F
:10223000A54802F00AF86006040E0A20FFF740FFE6
:102240004021A14801F0FFFF0A20FFF739FF40219C
:102250009D4801F0FAFF0A20FFF732FF681CC5B263
:10226000082DDCDB8021984801F0EDFF0A20FFF704
:1022700027FF4021944801F0E6FF0A20FFF720FFE6
:102280008021914801F0C5FF28B140218E4801F01E
:10229000DCFF002070BD40218B4801F0D6FF0120FB
:1022A000F8E710B58021884801F0CDFF0A20FFF73C
:1022B00007FF4021844801F0C6FF0A20FFF700FF16
:1022C0008021814801F0A5FF08B9012010BD8021BF
:1022D0007D4801F0BAFF0A20FFF7F2FE40217A485C
:1022E00001F0B3FF0A20FFF7EBFE8021764801F0F2
:1022F00090FF08B10220E9E70020E7E7F0B589B0D8
:10230000FFF7CFFFD020FFF782FF3B20FFF77FFFD3
:10231000FFF7C7FFD120FFF77AFF05A8FFF71AFFE5
:10232000FFF7D3FE00240EE0012000EB440005A9D6
:10233000085C11F8141040EA012000B201A921F84C
:102340001400601CC4B2072CEEDBBDF804005F492A
:102350000988401A00B25E490880BDF806005D4950
:102360000988401A00B25C490880BDF808005B4942
:102370000880BDF80C005A490988401A00B2594932
:102380000880BDF80E0058490988401A00B2574924
:102390000880BDF8100056490988401A00B2554916
:1023A00008804D48B0F9000004F07EFF074652480F
:1023B0000168384604F0D8FF054650480168504887
:1023C000006804F0D1FF0646294604F0CDFD4B49D4
:1023D00008603F48B0F9000004F066FF0746464831
:1023E0000168384604F0C0FF054646480168444885
:1023F000006804F0B9FF0646294604F0B5FD4149DE
:1024000008603E4801684048006804F0ADFD05469C
:102410004FF0804104F016FE3B49086039480168DE
:102420003A48006804F0A0FD05464FF0804104F0F2
:1024300009FE364908602948B0F9000004F034FF6D
:10244000064633480168304604F08EFD05464FF0DD
:10245000804104F0F7FD2E4908602248B0F90000E1
:1024600004F022FF06462B480168304604F07CFD4C
:1024700005464FF0804104F0E5FD264908601B4801
:10248000B0F9000004F010FF06462348016830460A
:1024900004F06AFD05464FF0804104F0D3FD1E496B
:1024A00008601448B0F9000004F0FEFE06461B4820
:1024B0000168304604F058FD05464FF0804104F0B5
:1024C000C1FD164908602BE0000C0140C00000204F
:1024D000BA000020BE000020B8000020BC00002090
:1024E000B2000020AC000020B4000020AE000020AC
:1024F000B6000020B0000020D0000020D80000204E
:10250000CC000020DC000020EC000020F0000020C7
:10251000F4000020E0000020E4000020E80000209B
:1025200009B0F0BD08B5C020ADF8000002208DF85C
:10253000020014208DF803006946954801F0D8FD8B
:102540000820ADF8000002208DF8020004208DF86C
:10255000030069468E4801F0CBFD40218C4801F014
:1025600072FE80218A4801F06EFE8A48FFF7A8FDBE
:1025700008BD70B58021864801F065FE4021844881
:1025800001F063FE0024002518E04021804801F09E
:102590005AFE0A20FFF794FD6006040E80217C4855
:1025A00001F037FE08B144F001044021784801F001
:1025B0004CFE0A20FFF784FD681CC5B2082DE4DB41
:1025C000FFF79AFD204670BD70B58021704801F07C
:1025D0003AFE40216E4801F038FE0024002518E044
:1025E00040216B4801F02FFE0A20FFF769FD6006CD
:1025F000040E8021664801F00CFE08B144F001048D
:102600004021634801F021FE0A20FFF759FD681CB4
:10261000C5B2082DE4DBFFF786FD204670BD10B57E
:10262000FFF73FFED020FFF7F2FD7520FFF7EFFD2B
:10263000FFF737FED120FFF7EAFDFFF79AFF0446C8
:10264000FFF743FD204610BD10B5FFF72AFED0204E
:10265000FFF7DDFD3820FFF7DAFD0120FFF7D7FD9A
:10266000FFF733FD10BD10B5FFF71BFED020FFF7BD
:10267000CEFD3720FFF7CBFDB220FFF7C8FDFFF7F7
:1026800024FD10BD10B5FFF70CFED020FFF7BFFDF5
:102690006A20FFF7BCFD0020FFF7B9FDFFF715FD2D
:1026A00010BD10B5FFF7FDFDD020FFF7B0FD1C20D9
:1026B000FFF7ADFD1820FFF7AAFDFFF706FD10BDDF
:1026C00010B5FFF7EEFDD020FFF7A1FD1B20FFF7AF
:1026D0009EFD1820FFF79BFDFFF7F7FC10BD10B51E
:1026E000FFF7DFFDD020FFF792FD6B20FFF78FFD96
:1026F0000120FFF78CFDFFF7E8FC10BD10B5FFF7D8
:10270000D0FDD020FFF783FD6B20FFF780FD012077
:10271000FFF77DFDFFF7D9FC10BD10B5FFF702FFF5
:10272000FFF7ECFFFFF7DBFFFFF7CAFFFFF7B9FF8B
:10273000FFF7A8FFFFF797FFFFF786FFFFF76FFF91
:102740000446FEF731FB14A0FEF739FB2046FEF7E6
:1027500058FBFEF74EFB42F2107001F03BF810BD43
:1027600070B504460D46FFF79CFD2046FFF74FFD70
:102770002846FFF74CFDFFF794FD611CC8B2FFF738
:1027800046FDFFF7F6FE0646FFF79FFC304670BD9C
:10279000000C0140A08601006D7075363035302088
:1027A00063686970206964202E00000070B5ADF583
:1027B000B56D0546002405E0002001A941F824007C
:1027C000601CC4B2072CF7DB00262CE0FFF769FD84
:1027D000D020FFF71CFD3B20FFF719FDFFF761FD3F
:1027E000D120FFF714FD0DF5B360FFF7B3FCFFF741
:1027F0006CFC002413E0012000EB44000DF5B361F4
:10280000085C11F8141040EA012000B2C6EBC601C2
:1028100008AA02EB410121F81400601CC4B2072C85
:10282000E9DB701CC6B2642ED0DB002415E0002664
:102830000FE0C6EBC60008A901EB400030F9140018
:1028400001A951F82410084401A941F82400701C82
:10285000C6B2642EEDDB601CC4B2072CE7DB64213A
:10286000059890FBF1F02860069890FBF1F0686005
:10287000079890FBF1F0A860019890FBF1F0E860F8
:10288000029890FBF1F02861039890FBF1F06861E9
:102890000020A861E86128620DF5B56D70BD00B536
:1028A0008DB0FEF781FAF9A0FEF789FAFEF7A1FADA
:1028B000FE4800F08FFF01A8FFF778FF019800B2F3
:1028C000FB490880029800B2FA490880039800B2D8
:1028D000F9490880049800B2F8490880059800B2C8
:1028E000F7490880069800B2F6490880079800B2B8
:1028F000F5490880089800B2F4490880099800B2A8
:10290000F3490880FEF750FAF2A0FEF758FAE848BB
:10291000B0F90000FEF775FAFEF76BFAE34800F035
:1029200059FFFEF741FAF0A0FEF749FAE148B0F985
:102930000000FEF766FAFEF75CFADC4800F04AFF9A
:10294000FEF732FAEDA0FEF73AFADB48B0F90000E4
:10295000FEF757FAFEF74DFAD44800F03BFFFEF7BA
:1029600023FAEAA0FEF72BFAD448B0F90000FEF7EC
:1029700048FAFEF73EFACD4800F02CFFFEF714FAB5
:10298000E6A0FEF71CFACE48B0F90000FEF739FACF
:10299000FEF72FFAC54800F01DFFFEF705FAE4A088
:1029A000FEF70DFAC748B0F90000FEF72AFAFEF765
:1029B00020FABE4800F00EFFFEF7F6F9E0A0FEF7A1
:1029C000FEF9FEF716FAB94800F004FF0DB000BD9D
:1029D00030B58DB0962001900290039000200490B5
:1029E00005900690FA200790089040000990062074
:1029F0000A900F200B9014200C90002407E001A8EF
:102A000050F82400D64941F82400601CC4B2032CBD
:102A1000F5DB002408E001A9E01C51F82000D149B1
:102A200041F82400601CC4B2032CF4DB002408E04D
:102A300001A9A01D51F82000CB4941F82400601CD9
:102A4000C4B2032CF4DB002405E00020C74941F8A0
:102A50002400601CC4B2032CF7DB0A9804F024FCA9
:102A600005464FF07E5104F0EDFAC14908600020A0
:102A7000C0490860C0490860C04908600DB030BD59
:102A800010B58CB040F2B630009032200190012099
:102A900002904FF47A7003904FF4CD60049041F2AD
:102AA000626005904FF47A70069007902420089099
:102AB000012009904FF4C8600A9001200B90009803
:102AC00004F0F2FB0446AE4904F0BCFAAD490860DC
:102AD000019804F0E9FB0446A94904F0B3FAAA49B5
:102AE0000860029804F0E0FB0446A54904F0AAFA45
:102AF000A64908600398401EA5490860049804F0A0
:102B0000D3FB0446A34904F09DFAA3490860059845
:102B100004F0CAFB04469F4904F094FA9F490860F8
:102B2000069804F0C1FB0446954904F08BFA9C49D1
:102B300008609C49079808609B49089808600998B4
:102B400004F0B2FB04468E4904F07CFA9749086011
:102B50000A9804F0A9FB0446894904F073FA9449E1
:102B600008600B9804F0A0FB0446854904F06AFA5B
:102B7000904908600CB010BD10B5FEF715F98EA095
:102B8000FEF71DF9FEF735F9FFF77AFFFFF720FF93
:102B9000FFF785FE10BD2DE9F04788B0FFF781FBF8
:102BA000D020FFF734FB3B20FFF731FBFFF779FB29
:102BB000D120FFF72CFB04A8FFF7CCFAFFF785FA2A
:102BC00000240DE0012000EB440004A9085C11F88A
:102BD000141040EA012000B22DF81400601CC4B2A9
:102BE000072CEFDBBDF900003449B1F90010451A9C
:102BF000BDF902003249B1F90010461ABDF904705E
:102C0000BDF908002A49B1F90010A0EB0108BDF98F
:102C10000A002849B1F90010A0EB0109BDF90C0028
:102C20002549B1F90010A0EB010AFEF7BDF869A033
:102C3000FEF7C5F8FEF7DDF81C4800F0CBFDFEF707
:102C4000B3F86BA0FEF7BBF84046FEF7DAF8FEF7E4
:102C5000D0F8164800F0BEFDFEF7A6F868A0FEF713
:102C6000AEF84846FEF7CDF8FEF7C3F80F4800F07F
:102C7000B1FDFEF799F866A0FEF7A1F85046FEF701
:102C8000C0F8FEF7B6F80948C8E000007374617236
:102C90007420746F20646F2073656C662063616CB0
:102CA0006962726174696F6E2E000000E093040027
:102CB000B2000020B4000020B6000020C0000020B8
:102CC000BE000020C2000020C4000020C60000207A
:102CD000C80000206779726F207069746368206390
:102CE000616C3D202E0000006779726F20726F6C5E
:102CF0006C2063616C3D202E000000006779726FCC
:102D0000207961772063616C3D202E006163632030
:102D1000726F6C6C2063616C3D202E0061636320D8
:102D200070697463682063616C3D202E00000000B0
:102D3000616363207961772063616C3D202E000020
:102D400066696E697368207468652073656C6620B7
:102D500063616C6962726174696F6E2E00000000BD
:102D60009C010020A8010020B4010020C001002027
:102D7000F8000020FC0000200001002004010020D9
:102D800000007A44CC000020D0000020D4000020B5
:102D9000900100200000C842480000204C000020A4
:102DA000540000209400002098000020880000209B
:102DB00080000020840000206C6F616420646566E0
:102DC00061756C7420706172616D65746572202E1E
:102DD00000000000626567696E20746F2073686F81
:102DE00077206D70753630353020646174612E0047
:102DF0006779726F2070697463683D202E0000004F
:102E00006779726F20726F6C6C3D202E000000009D
:102E10006779726F207961773D202E0000F0DAFC2F
:102E2000FDF7C2FF18A0FDF7CAFF2846FDF7E9FF2E
:102E3000FDF7DFFF174800F0CDFCFDF7B5FF16A04A
:102E4000FDF7BDFF3046FDF7DCFFFDF7D2FF11486F
:102E500000F0C0FCFDF7A8FF13A0FDF7B0FF384657
:102E6000FDF7CFFFFDF7C5FF0A4800F0B3FCFDF703
:102E70009BFF10A0FDF7A3FFFDF7BBFF054800F087
:102E8000A9FC08B0BDE8F08761636320726F6C6CC9
:102E90003D202E00E0930400616363207069746339
:102EA000683D202E00000000616363207961773D5A
:102EB000202E000066696E69736820746F20736845
:102EC0006F77206D70753630353020646174612EF7
:102ED0000000000000B585B0FE480068039004F0D3
:102EE000FBF9FD49049004F0ADF8FC490860F9488D
:102EF0004068039004F0F0F9F749049004F0A2F858
:102F0000F7490860F3488068039004F0E5F9F24956
:102F1000049004F097F8F3490860F34800680390C0
:102F200004F0DAF9F149049004F08CF8F0490860F3
:102F3000ED484068039004F0CFF9EC49049004F0A8
:102F400081F8EC490860E8488068039004F0C4F90F
:102F5000E649049004F076F8E7490860E74800681D
:102F6000039004F0B9F9E649049004F06BF8E549E0
:102F70000860E2484068039004F0AEF9E04904902C
:102F800004F060F8E0490860DC488068039004F0D1
:102F9000A3F9DB49049004F055F8DC490860DC48EB
:102FA0000068DC490860DA484068DB490860D848B6
:102FB0008068DA490860D7480068B0F57A7F05DD97
:102FC000D4480068C0F57A70D2490860D2480068D9
:102FD000B0F57A7F05DDD0480068C0F57A70CE493B
:102FE0000860CE480068B0F57A7F05DDCB48006800
:102FF000C0F57A70C9490860C648006804F054F901
:10300000B549049004F01EF8C5490860C24800683C
:1030100004F04AF9B049049004F014F8C14908607A
:10302000BE48006804F040F9AB49049004F00AF887
:10303000BD490860BD48B0F9000004F035F9A64963
:10304000049003F0FFFFBA490860BA48B0F90000E5
:1030500004F02AF9A049049003F0F4FFB64908608F
:10306000B648B0F9000004F01FF99B49049003F042
:10307000E9FFB3490860B148B0F9000004F014F961
:103080000290B0480168029804F06EF90490A748D5
:10309000B0F9000004F008F90090AB48016800980E
:1030A00004F062F90290A948B0F9000004F0FCF8BD
:1030B0000090A7480168009804F056F90190029921
:1030C00004F05AFA0390049903F04EFFA1490860F6
:1030D0009A48B0F9000004F0E7F8029099480168B6
:1030E000029804F041F904909048B0F9000004F00F
:1030F000DBF8009094480168009804F035F90290DC
:103100009248B0F9000004F0CFF8009090480168B0
:10311000009804F029F90190029903F025FF03902B
:10312000049903F021FF8C4908608448B0F900003D
:1031300004F0BAF8029083480168029804F014F988
:1031400004907C48B0F9000004F0AEF80090834889
:103150000168009804F008F902907C48B0F900007A
:1031600004F0A2F800907A480168009804F0FCF896
:103170000190029904F000FA0390049904F0FCF91C
:10318000774908606D48B0F9000004F08DF80290AE
:103190006C480168029804F0E7F804906548B0F9BB
:1031A000000004F081F800906C480168009804F079
:1031B000DBF802906548B0F9000004F075F8009063
:1031C00063480168009804F0CFF80190029903F079
:1031D000CBFE0390049904F0CFF96249086051488E
:1031E00001686148006804F0C7F90490504801681C
:1031F000049804F0C1F95D490860494801685C48D9
:10320000006804F0B9F904904B480168049804F090
:10321000B3F958490860444801685748006804F009
:10322000ABF9049046480168049804F0A5F95349A5
:103230000860084601682B48006804F095F804907F
:103240004C4801682548006804F08EF80290474811
:1032500001682348006804F087F800903D48016841
:10326000009803F081FE0190029904F085F9039023
:10327000049903F079FE374908604048016819480D
:10328000006804F071F804903A4801681348006837
:1032900004F06AF80290354801681148006804F0AB
:1032A00063F800902E480168009804F05AF90190E4
:1032B000029904F061F90390049904F05DF928493A
:1032C00008602E4801680748006804F04DF8049033
:1032D000284855E09C010020000020414C010020BE
:1032E0004801002050010020A801002000401C4699
:1032F00058010020540100205C010020B40100208E
:1033000000007A4464010020600100206801002070
:10331000C0010020700100206C0100207401002019
:103320007C01002078010020800100203E00002068
:10333000840100204000002088010020420000207D
:103340008C01002004010020FC0000203C00002033
:10335000F80000203801002040010020000100207A
:103360003C010020440100207400002008010020DE
:10337000780000200C0100207C00002010010020BB
:103380000168CE48006803F0EFFF0290CC48016866
:10339000CC48006803F0E8FF0090CB480168009833
:1033A00004F0DFF80190029903F0DEFD0390049928
:1033B00003F0DAFDC4490860C4480168C4480068E5
:1033C00003F0D2FF0490C3480168BC48006803F0D2
:1033D000CBFF0290BA480168BA48006803F0C4FF06
:1033E0000090BD480168009803F0BEFD019002996D
:1033F00003F0BAFD0390049904F0BEF8B6490860E2
:10340000AF480168B548006803F0AEFDB3490860F5
:10341000B0480168B248006803F0A6FDB0490860F2
:10342000AA480168AF48006803F09EFDAC490860F7
:10343000AC480168AC48006803F096FF0490A848C7
:103440000168AA48006803F08FFF0290A348016852
:10345000A748006803F088FF0090A648016800981C
:1034600003F082FD0190029904F086F8039004991C
:1034700003F07AFD9F4908609A4801689A480068FD
:1034800003F072FF0490964801689848006803F0C2
:103490006BFF0290914801689548006803F064FF53
:1034A000009095480168009804F05BF8019002993B
:1034B00004F062F80390049904F05EF88E49086005
:1034C000884801688848006803F04EFF04908448EB
:1034D00001688648006803F047FF02907F48016852
:1034E0008348006803F040FF009077480168009827
:1034F00004F037F80190029903F036FD0390049927
:1035000003F032FD7049086076480168764800682B
:1035100003F02AFF0490724801687448006803F0C1
:1035200023FF02906D4801687148006803F01CFF9A
:10353000009069480168009803F016FD0190029917
:1035400003F012FD0390049904F016F86249086034
:103550006A4801685A48006804F00EF86849086033
:10356000684801685B48006804F006F8664908602E
:10357000564801686548006803F0FEFF644908602A
:10358000644801686448006803F0EEFE04906348F4
:1035900001686348006803F0E7FE02906148016833
:1035A0006148006803F0E0FE00905248016800980E
:1035B00003F0DAFC0190029903F0DEFF0390049916
:1035C00003F0D2FC4B490860524801685248006839
:1035D00003F0CAFE0490514801685148006803F0A6
:1035E000C3FE02904F4801684F48006803F0BCFEDC
:1035F000009041480168009803F0B3FF01900299E0
:1036000003F0BAFF0390049903F0B6FF3A4908604B
:10361000404801684048006803F0A6FE04903F4817
:1036200001683F48006803F09FFE02903D48016832
:103630003D48006803F098FE009023480168009818
:1036400003F08FFF0190029903F08EFC0390049920
:1036500003F08AFC1C4908602E4801682E48006867
:1036600003F082FE04902D4801682D48006803F0A5
:103670007BFE02902B4801682B48006803F074FE23
:10368000009015480168009803F06EFC01900299C3
:1036900003F06AFC0390049903F06EFF0E49086082
:1036A00007480068154908600A480068154908601D
:1036B000064800681549086005B000BD4C010020AF
:1036C00008010020480100204001002010010020D6
:1036D000500100200C010020440100202C0100209A
:1036E00030010020340100205C010020580100203E
:1036F00054010020380100203C010020140100206A
:103700002001002018010020240100201C010020BD
:1037100028010020E800002068010020E4000020CB
:1037200064010020E00000206001002010B500F0DE
:1037300083FE01F071F84FF4803001F08CF801F055
:10374000C9F80446012C24D1102000F05BFC0220B3
:1037500000F042FC002001F006F9A00201F015F98A
:10376000A00201F009F94FF4E011200401F0DEF8A5
:10377000012001F0E7F800BF392001F08FF80028A0
:10378000FAD0022001F0E1F800BF01F0E7F80828C4
:10379000FBD110BD10B501211D2001F0A9F90121B7
:1037A000880301F0A5F90121480201F0A1F90121E6
:1037B000084601F090F90121C80201F099F90121B0
:1037C000480301F095F901215D4800F060FD00F02B
:1037D000D3FE10BD00E0401E0028FCD1704710B59C
:1037E0004FF48071574800F030FD10BD10B54FF414
:1037F0008071544800F027FD10BD38B54FF480703B
:10380000ADF8000010208DF8030003208DF80200B1
:1038100069464D4800F06CFC4FF480714A4800F056
:1038200012FD4FF48070ADF8000002208DF8020008
:1038300010208DF803006946424800F059FCFFF75C
:10384000CEFF00240BE0FFF7D1FF4048FFF7C2FF97
:10385000FFF7C5FF3D48FFF7BDFF601CC4B21E2C3B
:10386000F1DB38BD08B54FF4C06000F028FE192028
:103870008DF8000000208DF8010001208DF8020075
:103880008DF80300684600F020FE08BD0EB501214A
:10389000C80201F02DF90020ADF806004720ADF870
:1038A00000002B48008880B2ADF804000020ADF87D
:1038B00002008DF808006946264801F0F0F9FFF78C
:1038C000D1FF0121234801F052FF01221146214876
:1038D00001F086FC01211F4801F067FC0EBD0120AC
:1038E0001D490860704710B51C480068B0F57A7F24
:1038F00002D900201949086018480068B0F5FA7F1D
:1039000004D1FFF773FFFEF715FA08E013480068CB
:10391000B0F57A7F03D1FFF762FFFEF7B9F91048DF
:10392000006814280AD900200D4908600D48007865
:1039300020B10D48007808B1FCF7BDFD10BD0000B6
:103940000002300000080140000C0140E093040038
:1039500090010020002C01400400002014000020F1
:1039600010000020440000204500002010B504464F
:10397000F748201806D0B0F5806F0DD0B0F5C05FC5
:103980001ED113E00121480201F0CCF800214FF4D0
:10399000007001F0C7F814E00121880201F0C2F8BC
:1039A00000214FF4806001F0BDF80AE00121C80356
:1039B00001F0B8F800214FF4004001F0B3F800E046
:1039C00000BF00BF10BD30B5024600200023506884
:1039D000E04C20400D790C6844EA052420435060F7
:1039E0009068DD4C2040D1E902542C434D7944EAE3
:1039F000450420439060D06A20F470000C7C641E63
:103A00001C43E3B240EA0350D06230BD00210160A4
:103A1000017141718160C16001210174704721B160
:103A2000826842F00102826003E0826822F00102B3
:103A30008260704721B1826842F48072826003E044
:103A4000826822F480728260704710B50023CBB286
:103A50001AB144681C43446002E044689C434460DB
:103A600010BD816841F00801816070470146002067
:103A70008A6812F0080F01D0012000E00020704792
:103A8000816841F0040181607047014600208A6826
:103A900012F0040F01D0012000E00020704721B196
:103AA000826842F4A002826003E0826822F4A002ED
:103AB00082607047014600208A6812F4800F01D0AE
:103AC000012000E00020704710B50A4600210023C5
:103AD000416821F46041531E41EA4331416010BD09
:103AE00021B1426842F40062426003E0426822F47D
:103AF000006242607047F0B504460D460020002188
:103B0000092D11DDE068A5F10A0606EB4607072638
:103B100006FA07F18843A5F10A0606EB460603FA02
:103B200006F10843E0600CE0206905EB4507072635
:103B300006FA07F1884305EB450603FA06F1084348
:103B40002061072A0FDA606B561E06EB86071F26D8
:103B500006FA07F18843561E06EB860605FA06F1BB
:103B60000843606322E00D2A0FDA206BD61F06EBB4
:103B700086071F2606FA07F18843D61F06EB86063E
:103B800005FA06F10843206310E0E06AA2F10D0691
:103B900006EB86071F2606FA07F18843A2F10D06F9
:103BA00006EB860605FA06F10843E062F0BD21B196
:103BB000826842F48012826003E0826822F48012FC
:103BC000826070470146C86C80B2704763480068E5
:103BD000704721B1426842F48062426003E042686B
:103BE00022F480624260704721B1426842F4805200
:103BF000426003E0426822F48052426070470A4605
:103C00000021816821F4E04111438160704721B1B6
:103C1000826842F40042826003E0826822F400423B
:103C20008260704721B1826842F40212826003E030
:103C3000826822F4021282607047014600208A687E
:103C400012F4001F01D0012000E000207047F0B501
:103C500004461546002000220026092911DDE068EF
:103C6000A1F10A0707EB470C072707FA0CF290436C
:103C7000A1F10A0707EB470703FA07F21043E060D8
:103C80000CE0206901EB410C072707FA0CF2904386
:103C900001EB410703FA07F210432061A06BC0F368
:103CA0000156EF1C06F1010CA7EB0C0707EB870C84
:103CB0001F2707FA0CF29043EF1C06F1010CA7EB4B
:103CC0000C0707EB870701FA07F21043A063F0BD6A
:103CD00010B50A4600210023816B21F44011531EC8
:103CE00041EA0351816310BD4250704702465018AB
:103CF000806A80B270470A4600214168184B19401B
:103D00001143416070474162826270470A46002158
:103D1000416821F01F0111434160704740B10F49D4
:103D20004439096841F400010C4A443A116007E043
:103D30000A494439096821F40001084A443A1160EB
:103D400070470246002013680B420BD001200AE0A6
:103D500000DCFEBFFFFEF0FFFDF7F1FF4C24014049
:103D6000FFFD3FFF00207047CA430260704770B5F7
:103D700002460020002300240B125568CEB205EA4B
:103D8000060415681D4202D00CB1012000E000209D
:103D900070BD00220A12D34303607047016821F00E
:103DA000010101600021016041608160C160864ABB
:103DB000811A90425BD012DC844AA0EB020190424F
:103DC0003AD007DC824941181BD0142922D0282977
:103DD0007AD128E0142938D0282975D13EE0B1F5F0
:103DE0006C7F5BD006DCB1F5627F49D0B1F5677FAF
:103DF0006AD14CE0B1F5717F57D0B1F5767F63D1D0
:103E00005BE072494439496841F00F016F4A443A16
:103E100051605AE06D494439496841F0F0016B4AFC
:103E2000443A516051E069494439496841F470614C
:103E3000664A443A516048E064494439496841F46B
:103E40007041624A443A51603FE0604944394968F0
:103E500041F470215D4A443A516036E05B4944398F
:103E6000496841F47001594A443A51602DE057497C
:103E70004439496841F07061544A443A516024E041
:103E80005449096841F00F01524A11601DE051493F
:103E9000096841F0F0014F4A116016E04D49096888
:103EA00041F470614B4A11600FE04A49096841F4DE
:103EB0007041484A116008E006E04649096841F44B
:103EC0007021444A116000E000BF00BF704710B588
:103ED0000022026847F6F0739A430C6A8B6823430A
:103EE0000C6923434C6923438C692343CC692343E6
:103EF0004C6A23438C6A23431A430260CB684360B5
:103F00000B6883604B68C36010BD00210160416095
:103F10008160C160016141618161C1610162416291
:103F20008162704721B1026842F00102026003E041
:103F3000026822F00102026070471AB103680B4365
:103F4000036002E003688B430360704701464868E2
:103F500080B2704701460020002211F0805F03D03C
:103F60001C4B1B1F1A6802E0184B443B1A680A429C
:103F700001D0012000E00020704710F0805F02D0E7
:103F80001449086002E0114944394860704701460D
:103F90000020002211F0805F03D00E4B1B1F1A6817
:103FA00002E00A4B443B1A680A4201D0012000E0BB
:103FB0000020704710F0805F02D00649086002E0E0
:103FC0000249443948607047800002404400024082
:103FD000F8FFFDBF040402401049096801F03801F0
:103FE0000E4A1160114609680143116070470B4980
:103FF000096821F00801094A116011460968014366
:10400000116070470549096821F01001034A1160E9
:10401000114609680143116070470000002002400A
:1040200010B50446C549601A8C422FD009DCC4483B
:10403000201810D0B0F5806F16D0B0F5006F4AD1BF
:104040001BE0B0F5806F2AD0B0F5006F30D0B0F52E
:10405000406F40D135E00121042000F063FD0021D4
:10406000042000F05FFD37E00121082000F05AFD38
:104070000021082000F056FD2EE00121102000F064
:1040800051FD0021102000F04DFD25E001212020F0
:1040900000F048FD0021202000F044FD1CE001213B
:1040A000402000F03FFD0021402000F03BFD13E0E8
:1040B0000121802000F036FD0021802000F032FD3B
:1040C0000AE00121080200F02DFD00214FF480706C
:1040D00000F028FD00E000BF00BF10BD10B50121B9
:1040E000084600F01FFD0021012000F01BFD10BD5F
:1040F0002DE9F0410246002500260020002300247F
:10410000002791F803C00CF00F0591F803C01CF0D4
:10411000100F03D091F802C04CEA050591F800C0D9
:10412000BCF1000F31D0146800202BE04FF0010CDF
:104130000CFA00F3B1F800C00CEA03069E4220D14D
:1041400083004FF00F0C0CFA03F7BC4305FA03FC95
:104150004CEA040491F803C0BCF1280F06D14FF0DB
:10416000010C0CFA00FCC2F814C00AE091F803C07C
:10417000BCF1480F05D14FF0010C0CFA00FCC2F85D
:1041800010C0401C0828D1D31460B1F800C0BCF1A5
:10419000FF0F34DD546800202EE000F1080C4FF0D2
:1041A000010808FA0CF3B1F800C00CEA03069E42BD
:1041B00021D183004FF00F0C0CFA03F7BC4305FA32
:1041C00003FC4CEA040491F803C0BCF1280F05D1AC
:1041D00000F1080C08FA0CF8C2F8148091F803C03A
:1041E000BCF1480F07D100F1080C4FF0010808FAA4
:1041F0000CF8C2F81080401C0828CED35460BDE8EB
:10420000F0814FF6FF710180022181700421C1709D
:1042100070470246002093680B4201D0012000E065
:10422000002070470146886880B27047024600202F
:10423000D3680B4201D0012000E000207047014606
:10424000C86880B2704701617047416170470AB128
:10425000016100E041617047C16070474FF48032F6
:104260000A43826181618261826982697047024684
:104270000020344B18684FF68073184040EA021053
:104280000843304B186070472F49C8617047F0B53C
:104290000A4600230024002100252A4E7168C0F33D
:1042A000034583B200F44016B6F5401F08D121F053
:1042B0007061244E766826F07066224F7E6012E0B0
:1042C00000F48016B6F5801F06D1032606FA05F421
:1042D000A14341F0706106E0460D360103FA06F68F
:1042E000B14341F0706122B1460D360103FA06F682
:1042F0003143144E7160F0BD30B500228B071C0FA6
:104300000F2303FA04F20F4B08338C1053F82430B8
:1043100093430C4C08348D1044F8253023468C1000
:1043200053F824308C07240F00FA04F42343054C7F
:1043300008348D1044F8253030BD000000140140D1
:1043400000F8FEBF000001400000204210B540F21E
:104350002551364801F084FB012806D1FCF754FAB8
:1043600040F22551314801F0ADFB10BD704700BF50
:10437000FEE700BFFEE700BFFEE700BFFEE77047B5
:104380007047704770477047704770477047704775
:104390007047704770477047704770477047704765
:1043A0007047704770477047704770477047704755
:1043B000704770477047704710B501211C4801F0E5
:1043C000C5F928B101211A4801F0D1F9FFF787FAA0
:1043D00010BD70477047704770477047704770470F
:1043E0007047704770477047704770477047704715
:1043F0007047704710B501210E4801F0A7F928B1A8
:1044000001210C4801F0B3F9FDF7C4FD10BD704760
:1044100070477047704770477047704770477047E4
:1044200070477047704770477047704700380140C9
:10443000002C0140003401400020411EEE4A116072
:104440006FF07042ED49C1F884204FF0FF314FF01A
:10445000E022C2F880126FF07042E9490A6000BFA2
:1044600004E00022E74941F82020401C0F28F8D33F
:10447000704700204FF02061E34A11600021121DB7
:104480001160E249121D11600021121D1160121D00
:10449000116000BF05E00022DB49143141F8202003
:1044A000401C0328F7D30021D74A20321160491E4F
:1044B000121D1160121D1160121D11607047D34949
:1044C0000143D14A083211607047F0B50021002243
:1044D000002300250F24C678002E36D0CA4E083699
:1044E000366806F4E066C6F5E066310AC1F10405F7
:1044F000CC40467806FA05F186782640314309011A
:104500000678B607F60EB140BE4E0778BF1056F8D3
:1045100027200678B607F70EFF2606FA07F39A4318
:1045200019400A43B74E0778BF1046F8272006788F
:1045300006F01F070126BE4007787F114FF0E02CE0
:104540000CEB8707C7F800610BE0067806F01F0741
:104550000126BE40A84F90F800C04FEA6C1C47F8F7
:104560002C60F0BD0021017041708170C1707047F6
:1045700010B501F0DEFA10BD10B501F0D8FA10BD8B
:1045800010B501F0DBFA10BD10B501F0D9FA10BD7D
:1045900010B50446200101F0D8FA10BD10B501F0A5
:1045A000D7FA10BD98480068C0F30930704710B5BD
:1045B00001460020002201F01F04012303FA04F247
:1045C0008D4B80334C1153F824301340934201D16A
:1045D000012000E0002010BD8D490860704700F008
:1045E0001F0201219140864A121F431142F82310F5
:1045F000704785480068C0F30900704710B5014650
:104600000020002201F01F04012303FA04F27C4B76
:104610007C334C1153F824301340934201D10120D4
:1046200000E0002010BD7848001F00687047794AFC
:104630000A400243744B1B1D1A6070477348001DEB
:1046400071490831086070477048401C6E49083154
:104650000860704739B16C4A0C32126802436A4BE9
:104660000C331A6006E0684A0C3212688243664BCB
:104670000C331A60704710B5002200F01F040123AC
:1046800003FA04F239B1604B20331B6813435E4CCC
:104690002034236006E05C4B20331B6893435A4C64
:1046A0002034236010BDF0B503460C4615460020AB
:1046B000FF2200260021544F08373F6807F4E067C7
:1046C000C7F5E067390AC1F10400CA4004FA00F1F5
:1046D00005EA02073943090103F0C0008009C3F36A
:1046E0000122D700B9404FEAC20CFF2707FA0CF6A7
:1046F000454F143757F82070B743DFF80CC10CF161
:10470000140C4CF82070674657F820700F434CF893
:104710002070F0BD10B50246002000230021910A50
:1047200001F00F01012404FA01F1374C2034246810
:1047300004EA01038B4201D1012000E0002010BDFA
:10474000002100F01F01304A126801238B401A43F8
:104750002D4B1A60704710B5002100F01F012A4A46
:1047600012684B1E01249C402243274B1A6010BD47
:1047700010B50246002000230021C2F3833101243A
:1047800004FA01F1204C2034246804EA01038B422E
:1047900001D1012000E0002010BD30B5014600200D
:1047A00000220023C1F38142C1F301531AB9164C10
:1047B0002834206811E0012A0CD1134C24342468D9
:1047C000DD0024FA05F0022B02D000F00F0004E017
:1047D000C0B202E00C4C2C34206830BD01460020F1
:1047E0000022C1F380521AB9074B3033186802E037
:1047F000054B34331868704780E100E000E100E0C9
:1048000084E200E000E400E004ED00E00000FA05CE
:1048100000EF00E080FFFF1FDE48006840F001006D
:10482000DC49086008464068DB490840D9494860CF
:1048300008460068D9490840D6490860084600681B
:1048400020F4802008600846406820F4FE0048609C
:10485000002088607047CF49096821F48031CD4A33
:1048600011601146096821F480211160B0F5803F84
:1048700003D0B0F5802F0ED106E0C649096841F497
:104880008031C44A116007E0C249096841F4A0219F
:10489000C04A116000E000BF00BF704710B501467C
:1048A0000022002300204A11012A02D1B94C2368BA
:1048B00006E0022A02D1B74C236A01E0B54C636AD4
:1048C00001F01F02012494401C4201D0012000E0AD
:1048D000002010BD10B5002400BF3120FFF7DEFF1F
:1048E000AF490870AF480068401CAE490860AC484A
:1048F000007828B908460068A0F58071FF39ECD12E
:104900003120FFF7CBFF08B1012400E0002420464E
:1049100010BD014600209F4A106820F0F80040EAD0
:10492000C10010607047A04908607047024600202F
:10493000984B586820F47C1042EA01031843954BC9
:104940005860704798490866704701460020914AB0
:10495000506820F003000843506070478D4840685D
:1049600000F00C007047014600208A4A506820F091
:10497000F00008435060704701460020854A5068A7
:1049800020F4E06008435060704701460020814AEF
:10499000506820F4605040EAC1005060704729B16F
:1049A0007C4A527A02437B4B5A7204E0794A527A2B
:1049B0008243784B5A7270477C49086070470146C1
:1049C0000020744A506820F440400843506070470B
:1049D0000021774A11706F4A82F82010012802D016
:1049E000042808D103E00121714A117004E0052177
:1049F0006F4A117000E000BF00BF70476D4908604A
:104A000070476449096A0143624A11627047694903
:104A100044390860704730B500210022002400238B
:104A20005C4D6D6805F00C0121B1042905D0082901
:104A300023D105E0604D056022E05F4D05601FE079
:104A4000544D6D6805F47012022505EB9242514DEC
:104A50006D6805F480341CB9584D554305600BE072
:104A60004C4D6D6815F4003F03D0544D554305601F
:104A700002E0514D5543056002E04F4D056000BF17
:104A800000BF444D6D6805F0F00109094C4D6B5CA9
:104A90000568DD4045603F4D6D6805F4E061090A39
:104AA000474D6B5C4568DD4085603A4D6D6805F4A7
:104AB0006051C90A424D6B5C4568DD40C560354DAB
:104AC0006D6805F44041890B3E4D6B5CC568B5FBD4
:104AD000F3F5056130BD29B12E4A526902432D4BD1
:104AE0005A6104E02B4A526982432A4B5A6170474B
:104AF00029B1284A92690243264B9A6104E0254A6B
:104B000092698243234B9A61704729B1214AD26945
:104B10000243204BDA6104E01E4AD26982431D4BF6
:104B2000DA61704729B11B4AD2680243194BDA6037
:104B300004E0184AD2688243164BDA60704729B104
:104B4000144A12690243134B1A6104E0114A1269B4
:104B50008243104B1A61704716494039086070470C
:104B60001149C86470470B49C87170470948406AC9
:104B700040F0807007494862704701460020054AAE
:104B800092680A4201D0012000E0002070470149EC
:104B900088727047001002400000FFF8FFFFF6FE29
:104BA000980100209401002000004242D8004242B7
:104BB000201002408004424200127A0000093D00A9
:104BC000527700086277000810B50446F749601A6A
:104BD0008C4245D00CDCB4F1804F1DD0F448201835
:104BE00023D0B0F5806F29D0B0F5006F54D12EE0FE
:104BF000B0F5806F3DD0B0F58E3F03D0B0F5923F59
:104C00004AD13FE00121C802FFF78CFF00214FF499
:104C10000060FFF787FF40E001210846FFF78FFFA4
:104C200000210120FFF78BFF37E001210220FFF771
:104C300086FF00210220FFF782FF2EE001210420E1
:104C4000FFF77DFF00210420FFF779FF25E0012118
:104C50000820FFF774FF00210820FFF770FF1CE019
:104C600001211020FFF76BFF00211020FFF767FFE5
:104C700013E001212020FFF762FF00212020FFF731
:104C80005EFF0AE001214803FFF74CFF00214FF4CB
:104C90000050FFF747FF00E000BF00BF10BD0288D3
:104CA00002F08F020280CA884B881A4303881A4395
:104CB00002808A8882850A88028501228282BD4A12
:104CC000904202D0BC4A904201D10A7A02867047D3
:104CD00070B5002400220023058C4FF6FE76354087
:104CE0000584028C8388048B4FF68F752C400D88C9
:104CF0002C43751E2A400D892A434D882A43CD88AE
:104D00008586AC4DA84202D0AB4DA84213D14FF6D8
:104D1000F7752A404D892A434FF6FB752A408D8846
:104D20002A4347F6FF652B4047F6FF552B408D89F8
:104D30002B43CD892B4383800483028470BD70B5DF
:104D4000002400220023058C4FF6EF7635400584C1
:104D5000028C8388048B48F6FF752C400D884FF633
:104D6000FF7606EA05252C434FF6DF752A400D89AC
:104D700006EA05152A434D8806EA05152A43CD881B
:104D800005878C4DA84202D08B4DA8421DD14FF60D
:104D90007F752A404D894FF6FF7606EA05152A43AE
:104DA0004FF6BF752A408D8806EA05152A4347F657
:104DB000FF352B4047F2FF752B408D8906EA8505AC
:104DC0002B43CD8906EA85052B4383800483028427
:104DD00070BD70B5002400220023058C4FF6FF66DD
:104DE00035400584028C8388848B4FF68F752C4068
:104DF0000D882C434FF6FF552A400D894FF6FF765C
:104E000006EA05252A434D8806EA05252A43CD886A
:104E10008587684DA84202D0674DA8421DD14FF248
:104E2000FF752A404D894FF6FF7606EA05252A438D
:104E30004FF6FF352A408D8806EA05252A4346F6B7
:104E4000FF752B4045F6FF752B408D8906EA051549
:104E50002B43CD8906EA05152B4383808483028486
:104E600070BD70B5002400220023058C4EF6FF763D
:104E700035400584028C8388848B48F6FF752C406E
:104E80000D884FF6FF7606EA05252C434DF6FF7593
:104E90002A400D8906EA05352A434D8806EA05357C
:104EA0002A43CD88A0F84050424DA84202D0424D3E
:104EB000A84207D1C3F30D038D894FF6FF7606EAAA
:104EC00085152B4383808483028470BD828B4FF2CF
:104ED000FF331A408283828B4FF6FF7303EA01236C
:104EE0001A4382837047F0B50C4615460021002214
:104EF0000026078C4EF6FF7C07EA0C070784818B9F
:104F0000028C4FF6FF7707EA043640F6FF47394038
:104F10004FF6FF7707EA05274FF6FF7C0CEA033CC4
:104F200047EA0C0739434DF6FF773A4046F480577D
:104F30003A4381830284F0BD828B4FF6F3731A40AB
:104F40008283828B0A4382837047F0B50C461546F4
:104F5000002100220026078C4FF6FF6C07EA0C07A1
:104F60000784818B028C4FF6FF7707EA04264FF601
:104F70000C7739404FF6FF7707EA03172F43394381
:104F80004FF6FF573A4046F480773A4381830284D4
:104F9000F0BD028B4FF2FF331A400283028B4FF6B3
:104FA000FF7303EA01231A43028370470010004095
:104FB00000FCFFBF002C014000340140F0B50C465E
:104FC0001546002100220026078C4FF6EF7C07EAE9
:104FD0000C070784018B028C4FF6FF7707EA041653
:104FE00040F6FF4739404FF6FF7707EA033739436A
:104FF0004FF6FF7707EA052739434FF6DF773A4048
:1050000046F010073A4301830284F0BD028B4FF64D
:10501000F3731A400283028B0A4302837047F0B590
:105020000C46154600210022068C4FF6FE773E40C6
:105030000684018B028C4FF60C7631407E1C06EA0A
:1050400003162E4331437E1E324044F001063243A4
:1050500001830284F0BD70B505460C46208850B926
:105060002389A28861882846FFF7D9FFE18828466E
:10507000FFF7CCFF25E0208804280AD12389A288E5
:1050800061882846FFF79AFFE1882846FFF781FFED
:1050900017E0208808280AD12389A2886188284639
:1050A000FFF753FFE1882846FFF746FF09E0238911
:1050B000A28861882846FFF716FFE1882846FFF797
:1050C00005FF70BD2DE9F04105460C46002601277D
:1050D000608808B9022600E00026A088012801D1D6
:1050E000022700E001272088A0B92389A2886188CF
:1050F0002846FFF794FFE1882846FFF787FF2389BA
:105100003A4631462846FFF759FFE1882846FFF71F
:1051100040FF13E02389A28861882846FFF74EFFED
:10512000E1882846FFF735FF23893A46314628466D
:10513000FFF775FFE1882846FFF768FFBDE8F081BB
:105140000A884B881A438B881A43CB881A430B89E9
:105150001A434B891A438B891A43A0F8442070479D
:105160004FF6FF71818000210180C1804180017272
:1051700070470021018041808180C180018141818F
:105180008181C1817047002101804180012181809E
:105190000021C18001817047002101804180818010
:1051A000C180018141818181704721B1028842F033
:1051B0000102028004E0028840F2FE331A400280BD
:1051C000704731B1B0F8442042F40042A0F84420C6
:1051D00005E0B0F84420C2F30E02A0F84420704766
:1051E0001AB183890B43838102E083898B438381D6
:1051F00070478182704741EA0203A0F84830704747
:105200001AB183890B43838102E083898B438381B5
:10521000704701894FF6F8721140018170470A46C4
:10522000002101894FF68F731940114301817047A6
:1052300030B504460D4629462046FFF7F0FF208989
:1052400040F00700208130BD2DE9F04104460D46B5
:1052500016461F46602D06D13B46012231462046A8
:10526000FFF7ACFE05E03B46012231462046FFF742
:10527000D6FE29462046FFF7D2FF208940F00700DE
:105280002081BDE8F08170B50C4600210189C9B2CA
:1052900044EA02054FF6FF7606EA03263543294322
:1052A000018170BD2DE9F04105460E46174698462E
:1052B000002443463A4631462846FFF7E4FF2C894E
:1052C0004FF6F870044044F007044FF68F70044026
:1052D00044F070042C81BDE8F081F0B504460D4621
:1052E00016461F463B46324629462046FFF7CBFF6F
:1052F000208940F480402081F0BD01858282704782
:105300000A460021018840F28F3319401143018081
:105310007047F0B50C4615461E46002100220023BA
:105320000189028B038C4FF6F877394021434FF601
:10533000FC473A4040F201173A434FF6DD773B40D5
:105340004FF6FF7707EA06172F433B43018102839D
:105350000384F0BD0A460021018B4FF68F7319407C
:105360001143018370470A460021018B48F6FF7301
:1053700019404FF6FF7303EA022319430183704774
:105380000A460021818B4FF68F73194011438183A8
:1053900070470A460021818B48F6FF7319404FF68B
:1053A000FF7303EA022319438183704721B1028806
:1053B00042F08002028004E0028840F27F331A400B
:1053C0000280704721B1828842F00402828004E0AA
:1053D00082884FF6FB731A408280704721B1828821
:1053E00042F00802828004E082884FF6F7731A4088
:1053F0008280704721B1828842F00102828004E0FD
:1054000082884FF6FE731A40828070470A46002158
:10541000018B4FF6F77319401143018370470A4619
:105420000021018B4FF2FF7319404FF6FF7303EA1F
:1054300002231943018370470A460021818B4FF6EE
:10544000F77319401143818370470A460021818B0D
:105450004FF2FF7319404FF6FF7303EA022319431B
:10546000818370470A460021018B4FF6FB73194078
:105470001143018370470A460021018B4FF6FF3329
:1054800019404FF6FF7303EA022319430183704763
:105490000A460021818B4FF6FB731940114381832B
:1054A00070470A460021818B4FF6FF3319404FF6B3
:1054B000FF7303EA02231943818370470A460021E0
:1054C000018B4FF67F7319401143018370470A46E1
:1054D0000021018BC1F30E014FF6FF7303EA022393
:1054E0001943018370470A460021818B4FF67F7371
:1054F00019401143818370470A460021818BC1F313
:105500000E014FF6FF7303EA0223194381837047AC
:105510000A460021018C4FF6FD73194011430184A6
:1055200070470A460021018C4FF6F773194011436A
:10553000018470470A460021018C4FF6DF73194041
:105540004FF6FF7303EA02131943018470470A46BA
:105550000021018C4FF67F7319404FF6FF7303EA69
:1055600002131943018470470A460021018C4FF64B
:10557000FF5319404FF6FF7303EA022319430184D6
:1055800070470A460021018C4FF2FF7319404FF615
:10559000FF7303EA02231943018470470A4600217E
:1055A000018C4DF6FF7319404FF6FF7303EA023387
:1055B00019430184704710B5038C01248C40A34328
:1055C0000384038C02FA01F4A4B22343038410BDC4
:1055D00010B5038C04248C40A3430384038C02FA8B
:1055E00001F4A4B22343038410BD30B5038C01241D
:1055F0008C40A343038409B1082912D100F1180398
:1056000003EB61031B684FF68F74234000F118040D
:1056100004EB6104236000F1180303EB61031A60DB
:1056200018E00B1FC3F34E0400F118031B5948F692
:10563000FF7423400C1FC4F34E0500F1180463519E
:105640004FF6FF7303EA02240B1FC3F34E0500F16C
:1056500018035C5130BD21B1028842F00202028081
:1056600004E0028840F2FD331A400280704721B105
:10567000028842F00402028004E0028840F2FB3318
:105680001A400280704721B1828842F080028280F5
:1056900004E082884FF67F731A4082807047028848
:1056A00040F2F7331A40028002880A4302807047B2
:1056B00082884FF68F731A40828082880A438280E4
:1056C000704702894FF6F8731A40028102890A4333
:1056D0000281704702894FF67F731A400281028966
:1056E0000A430281704781847047818570478186B3
:1056F00070470187704781877047A0F84010704756
:105700000288D2B2028002880A43028070470146B2
:10571000888E70470146088F70470146888F704712
:105720000146B1F8400070470146888C7047014639
:10573000088D704702460020138A0B4201D00120D9
:1057400000E000207047CA430282704730B502462D
:10575000002000230024158A05EA0103958905EA43
:10576000010413B10CB1012000E0002030BDCA4398
:105770000282704710B50446D749601A8C422BD07C
:1057800006DCD648201813D0B0F5806F38D119E068
:10579000B0F5806F2AD0B0F56C4F31D1012188036C
:1057A000FFF7C0F900214FF48040FFF7BBF928E074
:1057B00001214804FFF7C3F900214FF40030FFF73F
:1057C000BEF91EE001218804FFF7B9F900214FF46A
:1057D0008020FFF7B4F914E00121C804FFF7AFF906
:1057E00000214FF40020FFF7AAF90AE00121080583
:1057F000FFF7A5F900214FF48010FFF7A0F900E0B2
:1058000000BF00BF10BD2DE9F04786B005460E462B
:105810000024A24600BF00BF00272F462C8A4CF66A
:10582000FF700440F08804432C82AC894EF6F310DC
:105830000440B08831890843718908430443AC812E
:10584000AC8A4FF6FF400440B0890443AC8201A803
:10585000FFF7E1F8A248874202D1DDF810A001E08D
:10586000DDF80CA00AEBCA0000EB0A1031688900D1
:10587000B0FBF1F86420B8FBF0F0040120096421CA
:1058800001FB1089322000EB0910B0FBF1F000F0B1
:105890000F0004432C8106B0BDE8F0874FF4165189
:1058A000016000218180C18001810C2141810021A2
:1058B0008181704710B502460020108A4FF2FF0325
:1058C00018400B884C8823438C882343CC8823437F
:1058D0001843108210BD0021018041808180C18069
:1058E000704721B1828942F40052828104E08289AA
:1058F0004DF6FF731A4082817047F0B503460024CD
:105900000026002500201846C1F3421401F01F06AE
:10591000012707FA06F5012C01D10C3004E0022C16
:1059200001D1103000E014301AB107682F4307602E
:1059300002E00768AF430760F0BD1AB1838A0B43EA
:10594000838202E0838A8B4383827047028A4FF608
:10595000F0731A400282028A0A43028270478289E7
:105960004FF2FF731A40828182890A438281704715
:1059700021B1828942F00202828104E082894FF6DD
:10598000FD731A4082817047028A4FF6DF731A4016
:105990000282028A0A430282704721B1028A42F4DB
:1059A0008042028204E0028A4BF6FF731A400282B0
:1059B0007047C1F308028280704701468888C0F3AF
:1059C00008007047818941F0010181817047028B95
:1059D000D2B20283028B42EA012202837047028B19
:1059E00002F47F420283028B0A430283704721B193
:1059F000828A42F02002828204E0828A4FF6DF73BC
:105A00001A408282704721B1828A42F0100282825B
:105A100004E0828A4FF6EF731A408282704721B108
:105A2000828A42F00802828204E0828A4FF6F7738B
:105A30001A4082827047828A4FF6FB731A40828234
:105A4000828A0A438282704721B1828A42F002022E
:105A5000828204E0828A4FF6FD731A408282704788
:105A60000246002013880B4201D0012000E00020F4
:105A70007047CA430280704770B502460B46002447
:105A8000002100250020C3F3421503F01F01012669
:105A900006FA01F1012D02D19689314006E0022D6E
:105AA00002D1168A314001E0968A31401C1201264B
:105AB00006FA04F41688344011B10CB1012000E05C
:105AC000002070BD10B5002200230A12012494406A
:105AD000A3B2DC43048010BD004C004000BCFFBFFB
