:03000000022038A3
:10000B00020026AE07E4FDEE25E0FE92C612258B1C
:10001B000DEDB408F202255702257EC0E0C0F0C0FA
:10002B0083C082C0D075D000C000C001C002C00325
:10003B00C004C005C006C0079000C7E0FF900038A1
:10004B00E0FEC39F5010C3EF9ED394025008E00410
:10005B00F0E004F080259000C7E0FF900038E0FE50
:10006B00D39F400FEE9FD394025008E014F0E0149E
:10007B00F080089000C7E0900038F07F3D122426F6
:10008B00AC06AD07EC12172B90005D1218EE7F3B00
:10009B00122426AC06AD07EC12172B900055121844
:1000AB00EE7F3F122426AC06AD07EC12172B900007
:1000BB00651218EE7F4312242690008DE0FCA3E01E
:1000CB00FDC3EF9DFDEE9CFC12172B9000F5121853
:1000DB00EE7F45122426900093E0FCA3E0FDC3EFD6
:1000EB009DFDEE9CFC12172B9000FD1218EE7F4726
:1000FB00122426900099E0FCA3E0FDC3EF9DFDEEDA
:10010B009CFC12172B9001051218EE900041E0FC9D
:10011B00A3E0FDA3E0FEA3E0FF9000181218EE9001
:10012B000045E0FCA3E0FDA3E0FEA3E0FF90001C74
:10013B001218EEE4FBFAF97846900055E0FCA3E0C8
:10014B00FDA3E0FEA3E0FF12160B9000241218EEA5
:10015B00E4FBFAF97846900065E0FCA3E0FDA3E030
:10016B00FEA3E0FF12160B9000321218EEE4FBFA1E
:10017B00F9784690005DE0FCA3E0FDA3E0FEA3E070
:10018B00FF12160B90002C1218EEE4FBFA79837811
:10019B00429000F5E0FCA3E0FDA3E0FEA3E0FF121C
:1001AB00160B9000411218EEE4FBFA79837842901B
:1001BB0000FDE0FCA3E0FDA3E0FEA3E0FF12160BA5
:1001CB009000451218EEE4FBFA7983784290010512
:1001DB00E0FCA3E0FDA3E0FEA3E0FF12160B9000F2
:1001EB00491218EE7F397EFA7D8E7C3C900041E0FF
:1001FB00F8A3E0F9A3E0FAA3E0FB121502C004C0D8
:10020B0005C006C0077F397EFA7D8E7C3C90004589
:10021B00E0F8A3E0F9A3E0FAA3E0FB1215029001CA
:10022B00161218EE7F397EFA7D8E7C3C900049E0E9
:10023B00F8A3E0F9A3E0FAA3E0FB12150290011A70
:10024B001218EE900024E0FCA3E0FDA3E0FEA3E077
:10025B00FF90011E1218EE90002CE0FCA3E0FDA312
:10026B00E0FEA3E0FF9001221218EE900032E0FCBA
:10027B00A3E0FDA3E0FEA3E0FF9001261218EED051
:10028B0007D006D005D004120C92900032E0FCA3EC
:10029B00E0FDA3E0FEA3E0FFA804A905AA06FB125C
:1002AB001502C004C005C006C00790002CE0FCA3DB
:1002BB00E0FDA3E0FEA3E0FFA804A905AA06FB123C
:1002CB001502D003D002D001D000121411121F90CE
:1002DB00A804A905AA06AB07900024E0FCA3E0FD47
:1002EB00A3E0FEA3E0FF12160B121DB27BE17A2EE8
:1002FB00796578421215029000201218EE900032A8
:10030B00E0FCA3E0FDA3E0FEA3E0FFA804A905AA7F
:10031B0006FB121502C004C005C006C007900024DE
:10032B00E0FCA3E0FDA3E0FEA3E0FFA804A905AA5F
:10033B0006FB121502D003D002D001D0001214110B
:10034B00121F90A804A905AA06AB0790002CE0FC8D
:10035B00A3E0FDA3E0FEA3E0FF12160B121DB27B80
:10036B00E17A2E796578421215029000281218EE68
:10037B009000C4E0FCE4121730E4FBFAF978C312E6
:10038B001411E4FBFA7920784112160B9000AB1292
:10039B0018EE9000ABE0F8A3E0F9A3E0FAA3E0FBC2
:1003AB009000D9E0FCA3E0FDA3E0FEA3E0FF121454
:1003BB000D9000791218EE900038E0D39414900051
:1003CB00004024E0FCA3E0FDA3E0FEA3E0FF9000CF
:1003DB0079E0F8A3E0F9A3E0FAA3E0FB1214119083
:1003EB0000001218EE80071218FA00000000E4FF5C
:1003FB00FE7DFA7C43900000E0F8A3E0F9A3E0FA5D
:10040B00A3E0FB1216A8600E400C9000001218FA25
:10041B0043FA00008024E4FFFE7DFA7CC3900000C9
:10042B00E0F8A3E0F9A3E0FAA3E0FB1216A8500A48
:10043B009000001218FAC3FA0000900085E0FCA3AC
:10044B00E0FDA3E0FEA3E0FF900000E0F8A3E0F9DD
:10045B00A3E0FAA3E0FB121502C004C005C006C05E
:10046B000790009BE0FCA3E0FDA3E0FEA3E0FF9060
:10047B000079E0F8A3E0F9A3E0FAA3E0FB12150280
:10048B00D003D002D001D00012141190004D1218DD
:10049B00EE900038E0D394149000F94045E0F8A3B7
:1004AB00E0F9A3E0FAA3E0FBC000C001C002C00367
:1004BB0090004DE0F8A3E0F9A3E0FAA3E0FB900075
:1004CB0045E0FCA3E0FDA3E0FEA3E0FF12140DD07A
:1004DB0003D002D001D0001214119000F91218EEC3
:1004EB0080071218FA00000000E4FFFE7DFA7C433F
:1004FB009000F9E0F8A3E0F9A3E0FAA3E0FB1216F1
:10050B00A8600E400C9000F91218FA43FA00008014
:10051B0024E4FFFE7DFA7CC39000F9E0F8A3E0F938
:10052B00A3E0FAA3E0FB1216A8500A9000F91218E8
:10053B00FAC3FA000090004DE0FCA3E0FDA3E0FE3F
:10054B00A3E0FF900045E0F8A3E0F9A3E0FAA3E0F5
:10055B00FB12141190008FE0F8A3E0F9A3E0FAA3CB
:10056B00E0FB121502C004C005C006C00790007561
:10057B00E0FCA3E0FDA3E0FEA3E0FF9000F9E0F8B0
:10058B00A3E0F9A3E0FAA3E0FB121502D003D0021B
:10059B00D001D000121411C004C005C006C00790D2
:1005AB00001CE0F8A3E0F9A3E0FAA3E0FB90004500
:1005BB00E0FCA3E0FDA3E0FEA3E0FF12140D90000E
:1005CB0059E0F8A3E0F9A3E0FAA3E0FB121502D07F
:1005DB0003D002D001D0001214119000691218EE52
:1005EB00E4FFFE7D7A7C44900069E0F8A3E0F9A378
:1005FB00E0FAA3E0FB1216A8600C400A9000691207
:10060B0018FA447A0000E4FFFE7D7A7CC4900069FE
:10061B00E0F8A3E0F9A3E0FAA3E0FB1216A8500A56
:10062B009000691218FAC47A0000900069E0FCA3EC
:10063B00E0FDA3E0FEA3E0FF121715121764900074
:10064B00A3EEF0A3EFF0900069E0FCA3E0FDA3E0C4
:10065B00FEA3E0FF1217649000A7EEF0A3EFF0905B
:10066B0000C5E0FCE4121730E4FBFAF978C312146E
:10067B0011E4FBFA7920784112160B9000AF121897
:10068B00EE9000AFE0FCA3E0FDA3E0FEA3E0FF9043
:10069B0000B9E0F8A3E0F9A3E0FAA3E0FB12141110
:1006AB009000811218EE900038E0D394149000045F
:1006BB004024E0FCA3E0FDA3E0FEA3E0FF9000815B
:1006CB00E0F8A3E0F9A3E0FAA3E0FB121411900009
:1006DB00041218EE80071218FA00000000E4FFFE67
:1006EB007DFA7C43900004E0F8A3E0F9A3E0FAA3C1
:1006FB00E0FB1216A8600E400C9000041218FA438F
:10070B00FA00008024E4FFFE7DFA7CC3900004E035
:10071B00F8A3E0F9A3E0FAA3E0FB1216A8500A90A5
:10072B0000041218FAC3FA0000900089E0FCA3E061
:10073B00FDA3E0FEA3E0FF900004E0F8A3E0F9A323
:10074B00E0FAA3E0FB121502C004C005C006C00707
:10075B0090009FE0FCA3E0FDA3E0FEA3E0FF900070
:10076B0081E0F8A3E0F9A3E0FAA3E0FB121502D0B5
:10077B0003D002D001D0001214119000511218EEC8
:10078B00900038E0D394149001014045E0F8A3E0C9
:10079B00F9A3E0FAA3E0FBC000C001C002C00390C4
:1007AB000051E0F8A3E0F9A3E0FAA3E0FB900041CD
:1007BB00E0FCA3E0FDA3E0FEA3E0FF12140DD003C9
:1007CB00D002D001D0001214119001011218EE804A
:1007DB00071218FA00000000E4FFFE7DFA7C43903C
:1007EB000101E0F8A3E0F9A3E0FAA3E0FB1216A8DD
:1007FB00600E400C9001011218FA43FA000080249D
:10080B00E4FFFE7DFA7CC3900101E0F8A3E0F9A3BD
:10081B00E0FAA3E0FB1216A8500A9001011218FA95
:10082B00C3FA0000900051E0FCA3E0FDA3E0FEA39F
:10083B00E0FF900041E0F8A3E0F9A3E0FAA3E0FBAE
:10084B00121411900095E0F8A3E0F9A3E0FAA3E0ED
:10085B00FB121502C004C005C006C00790007DE066
:10086B00FCA3E0FDA3E0FEA3E0FF900101E0F8A3F1
:10087B00E0F9A3E0FAA3E0FB121502D003D002D0FB
:10088B0001D000121411C004C005C006C0079000AF
:10089B0018E0F8A3E0F9A3E0FAA3E0FB900041E035
:1008AB00FCA3E0FDA3E0FEA3E0FF12140D9000619A
:1008BB00E0F8A3E0F9A3E0FAA3E0FB121502D003E2
:1008CB00D002D001D00012141190006D1218EEE47A
:1008DB00FFFE7D7A7C4490006DE0F8A3E0F9A3E085
:1008EB00FAA3E0FB1216A8600C400A90006D1218D8
:1008FB00FA447A0000E4FFFE7D7A7CC490006DE040
:10090B00F8A3E0F9A3E0FAA3E0FB1216A8500A90B3
:10091B00006D1218FAC47A000090006DE0FCA3E0A1
:10092B00FDA3E0FEA3E0FF1217649000A9EEF0A375
:10093B00EFF090006DE0FCA3E0FDA3E0FEA3E0FF71
:10094B001217151217649000A5EEF0A3EFF09000AC
:10095B00C6E0FCE4121730E4FBFAF978C312141169
:10096B00E4FBFA79E0784012160B9000B31218EE04
:10097B00900049E0FCA3E0FDA3E0FEA3E0FF9000A4
:10098B00B3E0F8A3E0F9A3E0FAA3E0FB12140D9097
:10099B0000491218EE900008E0F8A3E0F9A3E0FA82
:1009AB00A3E0FB900049E0FCA3E0FDA3E0FEA3E085
:1009BB00FF12140D900010E0F8A3E0F9A3E0FAA3E6
:1009CB00E0FB121502C004C005C006C00790003D35
:1009DB00E0FCA3E0FDA3E0FEA3E0FF900049E0F8FC
:1009EB00A3E0F9A3E0FAA3E0FB121502D003D002B7
:1009FB00D001D0001214119000711218EE90004922
:100A0B00E0FCA3E0FDA3E0FEA3E0FF9000081218BA
:100A1B00EE9000A3E0FCA3E0FDEC12172B9000710D
:100A2B00E0F8A3E0F9A3E0FAA3E0FB12141112170C
:100A3B00649000A3EEF0A3EFF09000A7E0FCA3E01E
:100A4B00FDEC12172B900071E0F8A3E0F9A3E0FA8C
:100A5B00A3E0FB1214111217649000A7EEF0A3EFA2
:100A6B00F09000A5E0FCA3E0FDEC12172B900071B9
:100A7B00E0F8A3E0F9A3E0FAA3E0FB12140D1217C0
:100A8B00649000A5EEF0A3EFF09000A9E0FCA3E0CA
:100A9B00FDEC12172B900071E0F8A3E0F9A3E0FA3C
:100AAB00A3E0FB12140D1217649000A9EEF0A3EF54
:100ABB00F0900079E0FCA3E0FDA3E0FEA3E0FF12C1
:100ACB0017649000BDEEF0A3EFF0900081E0FCA363
:100ADB00E0FDA3E0FEA3E0FF1217649000BFEEF071
:100AEB00A3EFF0900020E0FCA3E0FDA3E0FEA3E069
:100AFB00FF1217649000C1EEF0A3EFF0900028E016
:100B0B00FCA3E0FDA3E0FEA3E0FF1217649000D767
:100B1B00EEF0A3EFF09000DDE4F0A3F09000F3F023
:100B2B00A3F0900038E0F975F004A4FFC374E89FBC
:100B3B00FF740395F0FE9000A4E02FFD9000A3E05E
:100B4B003EFC900030F0A3EDF0D394E8EC6480947D
:100B5B0083400C9000307403F0A374E8F0800FC353
:100B6B00900030E0648094805004E4F0A3F0900097
:100B7B00A6E02FFF9000A5E03EFE900036F0A3EF1D
:100B8B00F0D394E8EE64809483400C9000367403A9
:100B9B00F0A374E8F0800FC3900036E0648094807B
:100BAB005004E4F0A3F0E975F004A4FFC374E89FCC
:100BBB00FF740395F0FE9000A8E02FFD9000A7E0D6
:100BCB003EFC900039F0A3EDF0D394E8EC648094F4
:100BDB0083400C9000397403F0A374E8F0800FC3CA
:100BEB00900039E0648094805004E4F0A3F090000E
:100BFB00AAE02FFF9000A9E03EFE90003BF0A3EF90
:100C0B00F0D394E8EE64809483400C90003B740323
:100C1B00F0A374E8F0800FC390003BE064809480F5
:100C2B005004E4F0A3F0900038E0C3940A4027A3EB
:100C3B00E0FCA3E0FD900030E0FAA3E0FB90003B6A
:100C4B00E0FFA3E0900118CFF0A3EFF0900036E0A7
:100C5B00FEA3E0FF80139001187403F0A374E8F077
:100C6B00FB7A03FD7C03FF7E03122215D007D0060F
:100C7B00D005D004D003D002D001D000D0D0D08288
:100C8B00D083D0F0D0E0329001121218EE787212AD
:100C9B00189178721218B9121502783E1218E27870
:100CAB007612189178721218B9121502784212182E
:100CBB00E2787A12189178721218B91215027846E6
:100CCB001218E2787E12189178721218B912150266
:100CDB00784A1218E2787612189178761218B912AF
:100CEB001502784E1218E2787A121891787612184B
:100CFB00B912150278521218E2787E121891787692
:100D0B001218B912150278561218E2787A12189145
:100D1B00787A1218B9121502785A1218E2787E12E4
:100D2B001891787A1218B9121502785E1218E278B7
:100D3B007E121891787E1218B91215027862121869
:100D4B00E2900122E0FCA3E0FDA3E0FEA3E0FFA8FC
:100D5B0004A905AA06FB121502C004C005C006C0F3
:100D6B000790011EE0FCA3E0FDA3E0FEA3E0FFA8BB
:100D7B0004A905AA06FB121502D003D002D001D09C
:100D8B0000121411C004C005C006C007900126E074
:100D9B00FCA3E0FDA3E0FEA3E0FFA804A905AA06BF
:100DAB00FB121502D003D002D001D0001214111285
:100DBB001F9078221218E290011EE0FCA3E0FDA325
:100DCB00E0FEA3E0FF78221218B912160B90011E59
:100DDB001218EE900122E0FCA3E0FDA3E0FEA3E0DD
:100DEB00FF78221218B912160B9001221218EE90EE
:100DFB000126E0FCA3E0FDA3E0FEA3E0FF782212B6
:100E0B0018B912160B9001261218EE78461218B963
:100E1B00C0007856121891D00012140DE4FBFAF9A9
:100E2B00784012150278261218E2785E1218917823
:100E3B00421218B9121411E4FBFAF9784012150298
:100E4B00782A1218E2784E1218B9C000783E1218A0
:100E5B0091D00012140D785A1218B912140D786231
:100E6B001218B9121411782E1218E2782A1218914E
:100E7B00900126E0F8A3E0F9A3E0FAA3E0FB12153A
:100E8B0002C004C005C006C007782E12189190014D
:100E9B0022E0F8A3E0F9A3E0FAA3E0FB121502D0DD
:100EAB0003D002D001D00012140D78321218E27860
:100EBB002E12189190011EE0F8A3E0F9A3E0FAA31B
:100ECB00E0FB121502C004C005C006C0077826124D
:100EDB001891900126E0F8A3E0F9A3E0FAA3E0FB58
:100EEB00121502D003D002D001D00012140D7836A7
:100EFB001218E27826121891900122E0F8A3E0F97B
:100F0B00A3E0FAA3E0FB121502C004C005C006C0A3
:100F1B0007782A12189190011EE0F8A3E0F9A3E0DC
:100F2B00FAA3E0FB121502D003D002D001D00012BD
:100F3B00140D783A1218E278661218B9C000C00185
:100F4B00C002C0037F6F7E127D037C3C7832121887
:100F5B00B9121502D003D002D001D00012141178AF
:100F6B00661218E2786A1218B9C000C001C002C03C
:100F7B00037F6F7E127D037C3C78361218B91215F5
:100F8B0002D003D002D001D000121411786A1218CB
:100F9B00E2786E1218B9C000C001C002C0037F6FA7
:100FAB007E127D037C3C783A1218B9121502D003DD
:100FBB00D002D001D000121411786E1218E2E4FFA7
:100FCB00FE7D207C4178321218B912150290011265
:100FDB00E0F8A3E0F9A3E0FAA3E0FB1214117866A2
:100FEB001218B91214119001121218EEE4FFFE7DC3
:100FFB00207C4178361218B9121502900116E0F8D0
:10100B00A3E0F9A3E0FAA3E0FB121411786A12181B
:10101B00B91214119001161218EEE4FFFE7D207C1C
:10102B0041783A1218B912150290011AE0F8A3E0B0
:10103B00F9A3E0FAA3E0FB121411786E1218B9129F
:10104B00141190011A1218EE78721218B9C000C060
:10105B0001C002C003787612189112171590011275
:10106B00E0F8A3E0F9A3E0FAA3E0FB121502C00439
:10107B00C005C006C007900116E0FCA3E0FDA3E08D
:10108B00FEA3E0FF787A1218B9121502A804A9057D
:10109B00AA06AB07D007D006D005D00412140DC09A
:1010AB0004C005C006C00790011AE0FCA3E0FDA335
:1010BB00E0FEA3E0FF787E1218B9121502A804A96E
:1010CB0005AA06AB07D007D006D005D00412140D25
:1010DB007B6F7A127983783B121502D003D002D042
:1010EB0001D00012141178721218E278761218B926
:1010FB00C000C001C002C00390011AE0FCA3E0FDD8
:10110B00A3E0FEA3E0FF787A1218B9121502C0040F
:10111B00C005C006C007900112E0FCA3E0FDA3E0F0
:10112B00FEA3E0FF78721218B9121502D003D00299
:10113B00D001D000121411C004C005C006C0079026
:10114B000116E0FCA3E0FDA3E0FEA3E0FF787E1216
:10115B0018B9121502A804A905AA06AB07D007D027
:10116B0006D005D00412140D7B6F7A127983783B6D
:10117B00121502D003D002D001D0001214117876D0
:10118B001218E2787A1218B9C000C001C002C0036D
:10119B0090011AE0FCA3E0FDA3E0FEA3E0FF78764C
:1011AB001218B9121502C004C005C006C007900181
:1011BB0016E0FCA3E0FDA3E0FEA3E0FF787212189B
:1011CB00B9121502D003D002D001D00012140DC0F9
:1011DB0004C005C006C007900112E0FCA3E0FDA30C
:1011EB00E0FEA3E0FF787E1218B9121502D003D0EF
:1011FB0002D001D0001214117B6F7A127983783BE5
:10120B00121502D003D002D001D000121411787A3B
:10121B001218E2787E1218B9C000C001C002C003D8
:10122B00900116E0FCA3E0FDA3E0FEA3E0FF7876BF
:10123B001218B9121502C004C005C006C0079001F0
:10124B001AE0FCA3E0FDA3E0FEA3E0FF7872121806
:10125B00B9121502D003D002D001D000121411C064
:10126B0004C005C006C007900112E0FCA3E0FDA37B
:10127B00E0FEA3E0FF787A1218B9121502A804A9B0
:10128B0005AA06AB07D007D006D005D00412140D63
:10129B007B6F7A127983783B121502D003D002D080
:1012AB0001D000121411787E1218E2787612189180
:1012BB0078761218B9121502C004C005C006C00713
:1012CB00787212189178721218B9121502D003D0D5
:1012DB0002D001D000121411C004C005C006C00713
:1012EB00787A121891787A1218B9121502D003D0A5
:1012FB0002D001D000121411C004C005C006C007F3
:10130B00787E121891A804A905AA06AB071215023C
:10131B00D003D002D001D000121411121F907822EA
:10132B001218E2787212189178221218B912160B51
:10133B0078721218E2787612189178221218B91274
:10134B00160B78761218E2787A1218917822121806
:10135B00B912160B787A1218E2787E12189178224D
:10136B001218B912160B787E1218E2787E121891A9
:10137B0078761218B9121502C004C005C006C00752
:10138B00787A12189178721218B9121502D003D00C
:10139B0002D001D00012140DE4FBFAF978401215BB
:1013AB00021223127BE17A2E796578421215029094
:1013BB0000D91218EE787E121891787A1218B91299
:1013CB001502C004C005C006C007787612189178C4
:1013DB00721218B9121502D003D002D001D000122C
:1013EB001411E4FBFAF978401215021223127BE177
:1013FB007A2E796578421215029000B90218EE0226
:10140B0017D0E86480F8E933E83360110460F0ED3D
:10141B0033EC337009E8FCE9FDEAFEEBFF220460D4
:10142B00DED3EB9FEA9EE99DE8C2E78CF0C2F7950D
:10143B00F0400CE8CCF8E9CDF9EACEFAEBCFFB1291
:10144B00179B85D0F05804700320D5B3E8047007C0
:10145B005002B2D50217DA92D5EC0460F7E4CCC097
:10146B00E0C398F8603B94186008400DD0E0FB0295
:10147B0017B2E4FBFAC9FC8028E830E406E4C9FBA8
:10148B00E4CAFCE830E305E4C9CACBFCE8540760C6
:10149B0010F8C3E913F9EA13FAEB13FBEC13FCD8BE
:1014AB00F130F52FC3E49CFCEF9BFFEE9AFEED9918
:1014BB00FDD0E0FBEF4E4D4C701222DB030217D731
:1014CB00EC2CFCEF33FFEE33FEED33FDED30E7EBB1
:1014DB000217B2EF2BFFEE3AFEED39FDD0E0FB50D9
:1014EB00130BBB00030217DAED13FDEE13FEEF1324
:1014FB00FFEC13FC0217B2EC4D6011E8497017EDCD
:10150B0033EC3304600DE4FCFFFEFD22E933E833DA
:10151B000470F80217D012179B58046009E4CC240E
:10152B008150062850090217DA2840030217D7C04A
:10153B00E0EB4A7044B98006D0E0FB0217C6EF4ED1
:10154B00701CBD8008EBFFEAFEE9FD80EBE98DF036
:10155B00A4FEE5F00215EBE9CDF9EAFEEBFFEF890E
:10156B00F0A4FCE5F0CE89F0A42EFFE435F0CD8994
:10157B00F0A42DFEE435F08067EF4E7005BD80D7EB
:10158B0080C3EF8BF0A4ACF0EE8BF0A42CFCE43515
:10159B00F0F8EF8AF0A42CE5F038FCE433CB8DF0B7
:1015AB00A42CFCE5F03BF8EE8AF0A42CFCE5F0381B
:1015BB00F8E433CF89F0A42CFCE5F038CF3400CE1F
:1015CB0089F0A42FFFE5F03EFEE433C98DF0A42E85
:1015DB00FEE5F039CD8AF0A42FFFE5F03EFEE43DA9
:1015EB00FD33D0E0FB50070BBB000F0217DAEC2CDE
:1015FB00FCEF33FFEE33FEED33FD0217B20217DAC9
:10160B00EC5D046005E8590470030217D012179BB8
:10161B00580460F6EC4860F2EC7004FDFEFF22C843
:10162B0060DB2481C85009C398600250060217D7AB
:10163B009850CAF582E9294B4A7005AB820217C64E
:10164B0075F0007C1A7880C3EF9BEE9AED99400DF4
:10165B00C3EF9BFFEE9AFEED99FDE842F0DC23AC65
:10166B00F0D0E0FFD0E0FED0E0FDAB8220E7101B16
:10167B00EB60BAEC2CFCEF33FFEE33FEED33FD02E7
:10168B0017B2E803F830E705C0F075F000EF2FFF55
:10169B00EE33FEED33FD40B830E7C280AA74F8CCD0
:1016AB006480CCC86480C8F582046043C3EB9FF5AB
:1016BB00F0EA9E42F0E99D42F0E89C45F060305024
:1016CB0018E5825FFFE582F42B5582FB50210ABAA5
:1016DB00001D09B90019088016E5825BFBE582F451
:1016EB002F5582FF50090EBE00050DBD00010CC326
:1016FB00EB9FF5F0EA9E42F0E99D42F0E89C45F045
:10170B006007CC4820E701B3EC22ED33EC33600AE1
:10171B00047003BD8004ECB2E7FC2275F020800E50
:10172B0075F010800575F0087D007E007F00339208
:10173B00D530D503121883EC334010EF33FFEE3363
:10174B00FEED33FDEC33FCD5F0ED22E5F0247EA26B
:10175B00D513CC92E7CDCEFF22EDD2E7CD33EC33D0
:10176B0092D524814006E4FFFEFDFC22FCE4CFCEA3
:10177B00CDCC24E0501174FF80EDC3CC13CCCD1332
:10178B00CDCE13CECF13CF0470F030D5DE0218833D
:10179B00E9D2E7C933E833F892D5EDD2E7CD33EC94
:1017AB0033FC5002B2D522EC30E7100FBF000C0E09
:1017BB00BE00080DBD00040BEB6014A2D5EB13FCAF
:1017CB00ED92E7FD2274FFFCFDFEFF22E480F8A200
:1017DB00D574FF13FC7D80E480EFC0E0EFFBEEFAE5
:1017EB00EDF9ECF8121502D0E0F5F0EFFBEEFAEDA7
:1017FB00F9ECF81218A9A3A3A3A3E8C0E0E9C0E091
:10180B00EAC0E0EBC0E0C0F01215021218D2A3A39D
:10181B00A3A3121411D0F0D0E0FBD0E0FAD0E0F982
:10182B00D0E0F8D5F0D422BB010689828A83E0226E
:10183B005002E722BBFE02E32289828A83E49322D1
:10184B00F8BB010DE58229F582E5833AF583E8F0D3
:10185B00225006E92582C8F622BBFE05E92582C87F
:10186B00F222A3F8E0C5F025F0F0E58215827002B4
:10187B001583E0C838F0E822C3E49FFFE49EFEE442
:10188B009DFDE49CFC22E6FC08E6FD08E6FE08E66E
:10189B00FF22E0FCA3E0FDA3E0FEA3E0FF22E49324
:1018AB00FC740193FD740293FE740393FF22E6FB19
:1018BB0008E6F908E6FA08E6CBF822E0F8A3E0F927
:1018CB00A3E0FAA3E0FB22E493F8740193F974020A
:1018DB0093FA740393FB22ECF608EDF608EEF60888
:1018EB00EFF622ECF0A3EDF0A3EEF0A3EFF022A8BD
:1018FB00828583F0D083D08212191112191112191B
:10190B0011121911E473E493A3C583C5F0C583C801
:10191B00C582C8F0A3C583C5F0C583C8C582C822DC
:10192B00E4F594F593F592F591F596F595F5B2F5F9
:10193B00B1F5B4F5B3F5CAF5C9F5CCF5CBF5E2F5D0
:10194B00E175960EF59575B280F5B112256475BAF1
:10195B008075F1B090FFF27410F0E4F5F6F5F790A6
:10196B00FFF07403F0A374E9F090FF04E4F090FF30
:10197B0014F090FF24F090FF34F090FF007403F00C
:10198B00A374E8F0A37403F0A374E9F090FF107450
:10199B0003F0A374E8F0A37403F0A374E9F090FFD1
:1019AB00207403F0A374E8F0A37403F0A374E9F0BC
:1019BB0090FF307403F0A374E8F0A37403F0A374E6
:1019CB00E9F075F58F1222027F607EEA1224497FBF
:1019DB00607EEA1224497F607EEA12244975D7E8BB
:1019EB0075D6FF7F607EEA1224497F607EEA12245F
:1019FB00497F607EEA12244975D7EB75D6FF7F606D
:101A0B007EEA1224497F607EEA1224497F607EEAD7
:101A1B001224499001187403F074E812220A7F60B3
:101A2B007EEA1224497F607EEA1224497F607EEAB7
:101A3B001224497F607EEA1224497F607EEA1224D9
:101A4B00497F607EEA12244975D7E575D6FF1222CD
:101A5B00027F607EEA1224497F607EEA1224497F6E
:101A6B00607EEA1224499001187403F0A374E81203
:101A7B00220B7F607EEA1224497F607EEA122449A2
:101A8B007F607EEA1224491222027F607EEA1224D2
:101A9B00497F607EEA1224497F607EEA12244990D6
:101AAB0001187403F0A374E812220B7F607EEA1214
:101ABB0024497F607EEA1224497F607EEA12244922
:101ACB001222027F607EEA1224497F607EEA122492
:101ADB00497F607EEA1224499001187403F0A374C5
:101AEB00E812220B7F607EEA1224497F607EEA12A5
:101AFB0024497F607EEA1224497F607EEA122449E2
:101B0B007F607EEA1224497F607EEA1224497F605F
:101B1B007EEA1224497F607EEA1224497F607EEAC6
:101B2B001224497F607EEA1224491222027F607ED2
:101B3B00EA1224497F607EEA1224497F607EEA1212
:101B4B0024497F607EEA1224497F607EEA12244991
:101B5B007F607EEA1224497F607EEA1224497F600F
:101B6B007EEA1224499001187403F0A374E8122240
:101B7B000B90FFF2E4F02244000C00000000440044
:101B8B001400000000410038004200BD000042007C
:101B9B00BF00004200C100004200D700004200DD40
:101BAB0000004200F300004200A300004200A50029
:101BBB00004200A700004200A900004200B700004D
:101BCB004200300000420036000042003900004263
:101BDB00003B000042008D000042009300004200D9
:101BEB009900005400DF000000000000000000001E
:101BFB00000000000000000000005400C3000000C3
:101C0B0000000000000000000000000000000000C9
:101C1B00004400690000000044006D000000004417
:101C2B000071000000004400AB000000004400AF56
:101C3B00000000004400B3000000004400FD000061
:101C4B0000004400F5000000004401050000000006
:101C5B004400550000000044005D000000004400FB
:101C6B0065000000004400240000000044002C002C
:101C7B00000000440032000000004400450000005A
:101C8B0000440041000000004400490000000044F3
:101C9B00002000000000440028000000004400D990
:101CAB00000000004400B9000000004400080000E0
:101CBB000000440079000000004400810000000097
:101CCB0044004D00000000440018000000004400D8
:101CDB009B427000004400853C23D70A440000005F
:101CEB0000000044008F3F0000004400753C23D7E8
:101CFB000A440059412000004400F9000000004450
:101D0B0000510000000044001C0000000044009F34
:101D1B00427000004400893C23D70A4400040000B1
:101D2B0000004400953F00000044007D3C23D70A8F
:101D3B004400614120000044010100000000440008
:101D4B003D40A000004400104000000045013F341E
:101D5B004310100145013A344310100104723F80C7
:101D6B000000047600000000047A00000000047EEE
:101D7B0000000000046600000000046A0000000080
:101D8B00046E0000000000BE1249253E4CCCCDBEB7
:101D9B00AAAAAB3F8000003E7ADBB03EED63383F32
:101DAB0024BC7D3F490FDBED33ECC2E7CC3392080B
:101DBB00B4FF13ED547F60030217D07FDB7E0F7DE2
:101DCB00C97C3F021EA7C209C3947F401E7007ED5A
:101DDB00D2E794904015EFFBEEFAEDF9ECF87F00AB
:101DEB007E007D807C3F12160BD209ED33EC332441
:101DFB008430E705E4C0E0806B04FAEDD2E754F0E1
:101E0B00C333DAFD540734002323C0E0CCC0E0F821
:101E1B00EDC0E0F9EEC0E0FAEFC0E0FBE4121730E2
:101E2B00EC24FEFC90012A1218EE1215027B007AAC
:101E3B00007980783F12141190012AE0B2E7CCF0C0
:101E4B00A3E0CDF0A3E0CEF0A3E0CFF0D0E0FBD049
:101E5B00E0FAD0E0F9D0E0F812141190012A121830
:101E6B00C612160B90012A1218EE901D92740312D3
:101E7B0017E590012A1218C6121502D0E0600F2444
:101E8B009EF582E4341DF5831218D2121411300919
:101E9B000B7BDB7A0F79C978BF121411ED33EC335E
:101EAB006006ECA20892E7FC2290012EEEF0A3EF65
:101EBB00F0A3ECF0A3EDF0E4FDD2AC7FAA1225A6C3
:101ECB001225A67F021225A67F0C1225A690012EA5
:101EDB001225A390012EE0FF1225A69001301225AA
:101EEB00A3900130E0FF1225A6AF031225A6EAFF4F
:101EFB001225A6900134A3E0FF1225A6900134E031
:101F0B00FF1225A6900136A3E0FF1225A6900136FD
:101F1B00E0FF1225A6900138A3E0FF1225A6900141
:101F2B0038E0FF1225A6ED24AA24AAFD0D0D740C92
:101F3B002DFD90012EE0FFEF2DFDA3E02DFDA3E085
:101F4B00FFEF2DFDA3E02DFDEAFFEF2D2BFD900103
:101F5B0034E0FAA3E0FBEAFFEF2DFDEB2DFDA3E050
:101F6B00FAA3E0FBEAFFEF2DFDEB2DFDA3E0FAA3B7
:101F7B00E0FBEAFFEF2DFDEB2DFDFF1225A6C2AC1A
:101F8B00220217D022EDA2E7D2E7F9EC3340F26040
:101F9B00F3B4FF08ED547F70E80217DAF82481C21E
:101FAB00E0C0E0F40428FAC313FCED92E7FD9001C6
:101FBB002A1218EEEEA2E7E9BA7F02C3133400949B
:101FCB0000FA75F091A4E5F013F494FE8AF0A433B3
:101FDB00E5F033248CD313FDE492E7FE7F007C3FC6
:101FEB00758302ECC0E0F8EDC0E0F9EEC0E0FAEF6B
:101FFB00C0E0FB8583F090012A12189D85F08312B7
:10200B00160BD0E0FBD0E0FAD0E0F9D0E0F81214D8
:10201B0011ED6480FD30E7011CD583C7ED33CC3364
:10202B00F8D0E0A2E71328C313CC13FD22787FE48A
:10203B00F6D8FD75818102207F0220C4E493A3F8BA
:10204B00E493A34003F68001F208DFF48029E493C4
:10205B00A3F85407240CC8C333C4540F4420C883BB
:10206B004004F456800146F6DFE4800B01020408BD
:10207B0010204080901B82E47E019360BCA3FF5430
:10208B003F30E509541FFEE493A360010ECF54C00B
:10209B0025E060A840B8E493A3FAE493A3F8E49393
:1020AB00A3C8C582C8CAC583CAF0A3C8C582C8CA9B
:1020BB00C583CADFE9DEE780BE12192B1221AE12EF
:1020CB0024031224E012224F1225119000C47480B5
:1020DB00F0A3F0A3F0E4A3F01225387FEE7E0212FA
:1020EB0024497B017A0079C312229A9000C8E0B48C
:1020FB00010812213BE49000C8F09000C9E0B40144
:10210B00DA900079E0FCA3E0FDA3E0FEA3E0FF90F2
:10211B00000C1218EE900081E0FCA3E0FDA3E0FEA2
:10212B00A3E0FF9000141218EEE49000C9F080AB0E
:10213B007F007EC812249612248D12248D7F4512A7
:10214B002426900093EEF0A3EFF07F431224269009
:10215B00008DEEF0A3EFF07F47122426900099EE4E
:10216B00F0A3EFF0900093E0FFAD077F007EC81265
:10217B0024AE7F011224AB90008DE0FFAD077F02F0
:10218B001224AE7F031224AB900099E0FFAD077FC2
:10219B00041224AEA3E0FD7F051224AE7D017F0661
:1021AB000224AE7F067EC81224F9EF64017047FF4C
:1021BB001224F9EF7D00FC7F011224F9ECFE900054
:1021CB0093EEF0A3EFF07F027EC81224F9EFFC7FB1
:1021DB00031224F9ECFE90008DEEF0A3EFF07F04D8
:1021EB007EC81224F9EFFC7F051224F9ECFE900057
:1021FB0099EEF0A3EFF0229001187403F074C0A3D2
:10220B00F0FB7A03FD7C03FF7E03900112EEF0A33B
:10221B00EFF0900112E090FF00F0900112A3E0901C
:10222B00FF01F0EC90FF10F0A3EDF0EA90FF20F02F
:10223B00A3EBF0900118E0FCA3E0FDEC90FF30F075
:10224B00A3EDF022C2E9D2EAC2EB7B017A01793F1E
:10225B0090010D7405F07F3012234D7B017A0179CB
:10226B003A90010D7405F07F2A12234D7D017F21D9
:10227B001225257D017F221225257D6E7F251225B6
:10228B00257D147F311225257D077F26022525907C
:10229B000109EBF0A3EAF0A3E9F0E4FA7F071223BC
:1022AB00DF8F2030061AC2E9900109E0FBA3E0FAA8
:1022BB00A3E0F99001107414F07F611222D77A0118
:1022CB00AD207F27122525D2E9AF022290010D12F6
:1022DB002386900111EFF0E4FC900110E0FFECC3BA
:1022EB009F501CE4FF12239090010DE0FBA3E0FA3A
:1022FB00A3E0F98C82758300EF12184B0C80DAD2B5
:10230B00EA900111E0FF22ECC0E0F8EDC0E0F9EE3D
:10231B00C0E0FAEFC0E0FB121502EC6480FC7B001E
:10232B007A007980783F121411121F90D0E0CFFB06
:10233B00D0E0CEFAD0E0CDF9D0E0CCF812160B02FB
:10234B001DB290010A12238690010EEFF0E4FC906F
:10235B00010DE0FFECC39F501A90010AE0FBA3E4D0
:10236B0075F00112186DA9F0FA121832FF122390B2
:10237B000C80DCD2EA90010EE0FF22EBF0A3EAF036
:10238B00A3E9F0C2EAAE07E4FDEE339290EE25E04E
:10239B00FED2EB7F0C1225AFA291E4334EFE7F0CE5
:1023AB001225AFC2EB0DEDB408DFAF0622AC07125E
:1023BB0025487FD012000EAF0412000E1225487F65
:1023CB00D112000E12246CAE07D2C612258B122529
:1023DB0097AF0622AE07C2EA7F0C1225AFAF0612EB
:1023EB0023907F0C1225AFE4FF122390AE077F0CD6
:1023FB001225AFD2EAAF0622E4FD7F6B1224C77D14
:10240B00077F191224C77D047F1A1224C77D087F0A
:10241B001B1224C77D087F1C0224C7AB071223B8ED
:10242B00AA07EB04FF1223B8AD07AF02EF3395E019
:10243B00EFFEED3395E0FCE42DFFEE3CFE22E4FDD8
:10244B00FCC3ED9FEC9E50070DBD00010C80F2E428
:10245B00FCFDC3ED9FEC9E50070DBD00010C80F2FF
:10246B0022E4FED2C6FDEE25E0FED280122592A21A
:10247B00C6E4334EFEC2801225920DEDB408E7AFD1
:10248B0006220F1224960F1224960F75C78075C55E
:10249B00038FC4EEF5C375C65A75C6A50002257128
:1024AB00A3E0FD75C78075C5028FC4EEF5C3AF05FC
:1024BB008FC275C65A75C6A500022571AC05AB0750
:1024CB001225487FD012000EAF0312000EAF04127C
:1024DB00000E022597759850438E40538EFE5389FC
:1024EB000F758BC3758DFFC2ABD28ED2AF2275C762
:1024FB008075C5018FC4EEF5C375C65A75C6A500A8
:10250B00AFC212257122538E7F5389F075A8827545
:10251B008A15758CB7C28DD28C22AC05C2EA1223F8
:10252B0090AB07AF04122390D2EAAF0322C2E97D2E
:10253B000F7F20122525D2E97F180225AFD2C6D2F4
:10254B0080122592C2C6122592C28022D2801225F9
:10255B0092A2C6C28012259222438E0475D7E575CE
:10256B00D6FF438E1022E4F5C7F5C5F5C675C380BB
:10257B00F5C422309802C298309904C299C20A322B
:10258B00D280122592C2807F0BDFFE22C2C6D28080
:10259B00122592D2C6022592A3E0FF200AFDEFD2AC
:0F25AB000AF59922EFD394004004001F80F62216
:00000001FF
